{"contracts/CertificateRegistry.sol":{"CertificateRegistry":{"abi":[{"inputs":[],"stateMutability":"nonpayable","type":"constructor"},{"anonymous":false,"inputs":[{"indexed":true,"internalType":"string","name":"certId","type":"string"},{"indexed":false,"internalType":"uint256","name":"timestamp","type":"uint256"}],"name":"CertificateRevoked","type":"event"},{"anonymous":false,"inputs":[{"indexed":true,"internalType":"string","name":"certId","type":"string"},{"indexed":false,"internalType":"string","name":"hash","type":"string"},{"indexed":false,"internalType":"uint256","name":"timestamp","type":"uint256"}],"name":"CertificateStored","type":"event"},{"inputs":[{"internalType":"string","name":"certId","type":"string"}],"name":"certificateRegistered","outputs":[{"internalType":"bool","name":"","type":"bool"}],"stateMutability":"view","type":"function"},{"inputs":[{"internalType":"string","name":"certId","type":"string"}],"name":"getCertificateHash","outputs":[{"internalType":"string","name":"","type":"string"}],"stateMutability":"view","type":"function"},{"inputs":[],"name":"owner","outputs":[{"internalType":"address","name":"","type":"address"}],"stateMutability":"view","type":"function"},{"inputs":[{"internalType":"string","name":"certId","type":"string"}],"name":"revokeCertificate","outputs":[],"stateMutability":"nonpayable","type":"function"},{"inputs":[{"internalType":"string","name":"certId","type":"string"},{"internalType":"string","name":"sha256Hash","type":"string"}],"name":"storeCertificate","outputs":[],"stateMutability":"nonpayable","type":"function"},{"inputs":[{"internalType":"string","name":"certId","type":"string"},{"internalType":"string","name":"sha256Hash","type":"string"}],"name":"verifyCertificate","outputs":[{"internalType":"bool","name":"","type":"bool"}],"stateMutability":"view","type":"function"}],"evm":{"bytecode":{"linkReferences":{},"object":"608060405234801561001057600080fd5b5033600260006101000a81548173ffffffffffffffffffffffffffffffffffffffff021916908373ffffffffffffffffffffffffffffffffffffffff160217905550610fc3806100616000396000f3fe608060405234801561001057600080fd5b50600436106100625760003560e01c80630499ba6f14610067578063142e1542146100975780632751f71b146100b3578063678d3644146100e35780638da5cb5b146100ff578063fa66ade01461011d575b600080fd5b610081600480360381019061007c9190610800565b61014d565b60405161008e91906108c8565b60405180910390f35b6100b160048036038101906100ac9190610800565b610268565b005b6100cd60048036038101906100c891906108ea565b6103ea565b6040516100da919061097d565b60405180910390f35b6100fd60048036038101906100f891906108ea565b61049a565b005b61010761064b565b60405161011491906109d9565b60405180910390f35b61013760048036038101906101329190610800565b610671565b604051610144919061097d565b60405180910390f35b606060018260405161015f9190610a30565b908152602001604051809103902060009054906101000a900460ff166101ba576040517f08c379a00000000000000000000000000000000000000000000000000000000081526004016101b190610a93565b60405180910390fd5b6000826040516101ca9190610a30565b908152602001604051809103902080546101e390610ae2565b80601f016020809104026020016040519081016040528092919081815260200182805461020f90610ae2565b801561025c5780601f106102315761010080835404028352916020019161025c565b820191906000526020600020905b81548152906001019060200180831161023f57829003601f168201915b50505050509050919050565b600260009054906101000a900473ffffffffffffffffffffffffffffffffffffffff1673ffffffffffffffffffffffffffffffffffffffff163373ffffffffffffffffffffffffffffffffffffffff16146102f8576040517f08c379a00000000000000000000000000000000000000000000000000000000081526004016102ef90610b85565b60405180910390fd5b6001816040516103089190610a30565b908152602001604051809103902060009054906101000a900460ff16610363576040517f08c379a000000000000000000000000000000000000000000000000000000000815260040161035a90610a93565b60405180910390fd5b60006001826040516103759190610a30565b908152602001604051809103902060006101000a81548160ff021916908315150217905550806040516103a89190610a30565b60405180910390207f57bf3aad622f3cf905e8c86d1e40e1de99f3ea3a1c14decf97a8671c24fbe557426040516103df9190610bbe565b60405180910390a250565b60006001836040516103fc9190610a30565b908152602001604051809103902060009054906101000a900460ff166104255760009050610494565b816040516020016104369190610a30565b6040516020818303038152906040528051906020012060008460405161045c9190610a30565b908152602001604051809103902060405160200161047a9190610c71565b604051602081830303815290604052805190602001201490505b92915050565b600260009054906101000a900473ffffffffffffffffffffffffffffffffffffffff1673ffffffffffffffffffffffffffffffffffffffff163373ffffffffffffffffffffffffffffffffffffffff161461052a576040517f08c379a000000000000000000000000000000000000000000000000000000000815260040161052190610b85565b60405180910390fd5b60018260405161053a9190610a30565b908152602001604051809103902060009054906101000a900460ff1615610596576040517f08c379a000000000000000000000000000000000000000000000000000000000815260040161058d90610cd4565b60405180910390fd5b806000836040516105a79190610a30565b908152602001604051809103902090816105c19190610e8b565b50600180836040516105d39190610a30565b908152602001604051809103902060006101000a81548160ff021916908315150217905550816040516106069190610a30565b60405180910390207fe7ca35231b44b0fd505c2bd6f738db12c1e2c45e89c3e89c88f5c225459d51fb824260405161063f929190610f5d565b60405180910390a25050565b600260009054906101000a900473ffffffffffffffffffffffffffffffffffffffff1681565b60006001826040516106839190610a30565b908152602001604051809103902060009054906101000a900460ff169050919050565b6000604051905090565b600080fd5b600080fd5b600080fd5b600080fd5b6000601f19601f8301169050919050565b7f4e487b7100000000000000000000000000000000000000000000000000000000600052604160045260246000fd5b61070d826106c4565b810181811067ffffffffffffffff8211171561072c5761072b6106d5565b5b80604052505050565b600061073f6106a6565b905061074b8282610704565b919050565b600067ffffffffffffffff82111561076b5761076a6106d5565b5b610774826106c4565b9050602081019050919050565b82818337600083830152505050565b60006107a361079e84610750565b610735565b9050828152602081018484840111156107bf576107be6106bf565b5b6107ca848285610781565b509392505050565b600082601f8301126107e7576107e66106ba565b5b81356107f7848260208601610790565b91505092915050565b600060208284031215610816576108156106b0565b5b600082013567ffffffffffffffff811115610834576108336106b5565b5b610840848285016107d2565b91505092915050565b600081519050919050565b600082825260208201905092915050565b60005b83811015610883578082015181840152602081019050610868565b60008484015250505050565b600061089a82610849565b6108a48185610854565b93506108b4818560208601610865565b6108bd816106c4565b840191505092915050565b600060208201905081810360008301526108e2818461088f565b905092915050565b60008060408385031215610901576109006106b0565b5b600083013567ffffffffffffffff81111561091f5761091e6106b5565b5b61092b858286016107d2565b925050602083013567ffffffffffffffff81111561094c5761094b6106b5565b5b610958858286016107d2565b9150509250929050565b60008115159050919050565b61097781610962565b82525050565b6000602082019050610992600083018461096e565b92915050565b600073ffffffffffffffffffffffffffffffffffffffff82169050919050565b60006109c382610998565b9050919050565b6109d3816109b8565b82525050565b60006020820190506109ee60008301846109ca565b92915050565b600081905092915050565b6000610a0a82610849565b610a1481856109f4565b9350610a24818560208601610865565b80840191505092915050565b6000610a3c82846109ff565b915081905092915050565b7f436572746966696361746520646f6573206e6f74206578697374000000000000600082015250565b6000610a7d601a83610854565b9150610a8882610a47565b602082019050919050565b60006020820190508181036000830152610aac81610a70565b9050919050565b7f4e487b7100000000000000000000000000000000000000000000000000000000600052602260045260246000fd5b60006002820490506001821680610afa57607f821691505b602082108103610b0d57610b0c610ab3565b5b50919050565b7f4f6e6c79206f776e65722063616e2063616c6c20746869732066756e6374696f60008201527f6e00000000000000000000000000000000000000000000000000000000000000602082015250565b6000610b6f602183610854565b9150610b7a82610b13565b604082019050919050565b60006020820190508181036000830152610b9e81610b62565b9050919050565b6000819050919050565b610bb881610ba5565b82525050565b6000602082019050610bd36000830184610baf565b92915050565b60008190508160005260206000209050919050565b60008154610bfb81610ae2565b610c0581866109f4565b94506001821660008114610c205760018114610c3557610c68565b60ff1983168652811515820286019350610c68565b610c3e85610bd9565b60005b83811015610c6057815481890152600182019150602081019050610c41565b838801955050505b50505092915050565b6000610c7d8284610bee565b915081905092915050565b7f436572746966696361746520494420616c726561647920657869737473000000600082015250565b6000610cbe601d83610854565b9150610cc982610c88565b602082019050919050565b60006020820190508181036000830152610ced81610cb1565b9050919050565b60006020601f8301049050919050565b600082821b905092915050565b600060088302610d417fffffffffffffffffffffffffffffffffffffffffffffffffffffffffffffffff82610d04565b610d4b8683610d04565b95508019841693508086168417925050509392505050565b6000819050919050565b6000610d88610d83610d7e84610ba5565b610d63565b610ba5565b9050919050565b6000819050919050565b610da283610d6d565b610db6610dae82610d8f565b848454610d11565b825550505050565b600090565b610dcb610dbe565b610dd6818484610d99565b505050565b5b81811015610dfa57610def600082610dc3565b600181019050610ddc565b5050565b601f821115610e3f57610e1081610bd9565b610e1984610cf4565b81016020851015610e28578190505b610e3c610e3485610cf4565b830182610ddb565b50505b505050565b600082821c905092915050565b6000610e6260001984600802610e44565b1980831691505092915050565b6000610e7b8383610e51565b9150826002028217905092915050565b610e9482610849565b67ffffffffffffffff811115610ead57610eac6106d5565b5b610eb78254610ae2565b610ec2828285610dfe565b600060209050601f831160018114610ef55760008415610ee3578287015190505b610eed8582610e6f565b865550610f55565b601f198416610f0386610bd9565b60005b82811015610f2b57848901518255600182019150602085019450602081019050610f06565b86831015610f485784890151610f44601f891682610e51565b8355505b6001600288020188555050505b505050505050565b60006040820190508181036000830152610f77818561088f565b9050610f866020830184610baf565b939250505056fea264697066735822122003ae00d7d189c0474f1743bb686c161f06c61957d35ccad8a5d55aa69bb8db4a64736f6c63430008130033","opcodes":"PUSH1 0x80 PUSH1 0x40 MSTORE CALLVALUE DUP1 ISZERO PUSH2 0x10 JUMPI PUSH1 0x0 DUP1 REVERT JUMPDEST POP CALLER PUSH1 0x2 PUSH1 0x0 PUSH2 0x100 EXP DUP2 SLOAD DUP2 PUSH20 0xFFFFFFFFFFFFFFFFFFFFFFFFFFFFFFFFFFFFFFFF MUL NOT AND SWAP1 DUP4 PUSH20 0xFFFFFFFFFFFFFFFFFFFFFFFFFFFFFFFFFFFFFFFF AND MUL OR SWAP1 SSTORE POP PUSH2 0xFC3 DUP1 PUSH2 0x61 PUSH1 0x0 CODECOPY PUSH1 0x0 RETURN INVALID PUSH1 0x80 PUSH1 0x40 MSTORE CALLVALUE DUP1 ISZERO PUSH2 0x10 JUMPI PUSH1 0x0 DUP1 REVERT JUMPDEST POP PUSH1 0x4 CALLDATASIZE LT PUSH2 0x62 JUMPI PUSH1 0x0 CALLDATALOAD PUSH1 0xE0 SHR DUP1 PUSH4 0x499BA6F EQ PUSH2 0x67 JUMPI DUP1 PUSH4 0x142E1542 EQ PUSH2 0x97 JUMPI DUP1 PUSH4 0x2751F71B EQ PUSH2 0xB3 JUMPI DUP1 PUSH4 0x678D3644 EQ PUSH2 0xE3 JUMPI DUP1 PUSH4 0x8DA5CB5B EQ PUSH2 0xFF JUMPI DUP1 PUSH4 0xFA66ADE0 EQ PUSH2 0x11D JUMPI JUMPDEST PUSH1 0x0 DUP1 REVERT JUMPDEST PUSH2 0x81 PUSH1 0x4 DUP1 CALLDATASIZE SUB DUP2 ADD SWAP1 PUSH2 0x7C SWAP2 SWAP1 PUSH2 0x800 JUMP JUMPDEST PUSH2 0x14D JUMP JUMPDEST PUSH1 0x40 MLOAD PUSH2 0x8E SWAP2 SWAP1 PUSH2 0x8C8 JUMP JUMPDEST PUSH1 0x40 MLOAD DUP1 SWAP2 SUB SWAP1 RETURN JUMPDEST PUSH2 0xB1 PUSH1 0x4 DUP1 CALLDATASIZE SUB DUP2 ADD SWAP1 PUSH2 0xAC SWAP2 SWAP1 PUSH2 0x800 JUMP JUMPDEST PUSH2 0x268 JUMP JUMPDEST STOP JUMPDEST PUSH2 0xCD PUSH1 0x4 DUP1 CALLDATASIZE SUB DUP2 ADD SWAP1 PUSH2 0xC8 SWAP2 SWAP1 PUSH2 0x8EA JUMP JUMPDEST PUSH2 0x3EA JUMP JUMPDEST PUSH1 0x40 MLOAD PUSH2 0xDA SWAP2 SWAP1 PUSH2 0x97D JUMP JUMPDEST PUSH1 0x40 MLOAD DUP1 SWAP2 SUB SWAP1 RETURN JUMPDEST PUSH2 0xFD PUSH1 0x4 DUP1 CALLDATASIZE SUB DUP2 ADD SWAP1 PUSH2 0xF8 SWAP2 SWAP1 PUSH2 0x8EA JUMP JUMPDEST PUSH2 0x49A JUMP JUMPDEST STOP JUMPDEST PUSH2 0x107 PUSH2 0x64B JUMP JUMPDEST PUSH1 0x40 MLOAD PUSH2 0x114 SWAP2 SWAP1 PUSH2 0x9D9 JUMP JUMPDEST PUSH1 0x40 MLOAD DUP1 SWAP2 SUB SWAP1 RETURN JUMPDEST PUSH2 0x137 PUSH1 0x4 DUP1 CALLDATASIZE SUB DUP2 ADD SWAP1 PUSH2 0x132 SWAP2 SWAP1 PUSH2 0x800 JUMP JUMPDEST PUSH2 0x671 JUMP JUMPDEST PUSH1 0x40 MLOAD PUSH2 0x144 SWAP2 SWAP1 PUSH2 0x97D JUMP JUMPDEST PUSH1 0x40 MLOAD DUP1 SWAP2 SUB SWAP1 RETURN JUMPDEST PUSH1 0x60 PUSH1 0x1 DUP3 PUSH1 0x40 MLOAD PUSH2 0x15F SWAP2 SWAP1 PUSH2 0xA30 JUMP JUMPDEST SWAP1 DUP2 MSTORE PUSH1 0x20 ADD PUSH1 0x40 MLOAD DUP1 SWAP2 SUB SWAP1 KECCAK256 PUSH1 0x0 SWAP1 SLOAD SWAP1 PUSH2 0x100 EXP SWAP1 DIV PUSH1 0xFF AND PUSH2 0x1BA JUMPI PUSH1 0x40 MLOAD PUSH32 0x8C379A000000000000000000000000000000000000000000000000000000000 DUP2 MSTORE PUSH1 0x4 ADD PUSH2 0x1B1 SWAP1 PUSH2 0xA93 JUMP JUMPDEST PUSH1 0x40 MLOAD DUP1 SWAP2 SUB SWAP1 REVERT JUMPDEST PUSH1 0x0 DUP3 PUSH1 0x40 MLOAD PUSH2 0x1CA SWAP2 SWAP1 PUSH2 0xA30 JUMP JUMPDEST SWAP1 DUP2 MSTORE PUSH1 0x20 ADD PUSH1 0x40 MLOAD DUP1 SWAP2 SUB SWAP1 KECCAK256 DUP1 SLOAD PUSH2 0x1E3 SWAP1 PUSH2 0xAE2 JUMP JUMPDEST DUP1 PUSH1 0x1F ADD PUSH1 0x20 DUP1 SWAP2 DIV MUL PUSH1 0x20 ADD PUSH1 0x40 MLOAD SWAP1 DUP2 ADD PUSH1 0x40 MSTORE DUP1 SWAP3 SWAP2 SWAP1 DUP2 DUP2 MSTORE PUSH1 0x20 ADD DUP3 DUP1 SLOAD PUSH2 0x20F SWAP1 PUSH2 0xAE2 JUMP JUMPDEST DUP1 ISZERO PUSH2 0x25C JUMPI DUP1 PUSH1 0x1F LT PUSH2 0x231 JUMPI PUSH2 0x100 DUP1 DUP4 SLOAD DIV MUL DUP4 MSTORE SWAP2 PUSH1 0x20 ADD SWAP2 PUSH2 0x25C JUMP JUMPDEST DUP3 ADD SWAP2 SWAP1 PUSH1 0x0 MSTORE PUSH1 0x20 PUSH1 0x0 KECCAK256 SWAP1 JUMPDEST DUP2 SLOAD DUP2 MSTORE SWAP1 PUSH1 0x1 ADD SWAP1 PUSH1 0x20 ADD DUP1 DUP4 GT PUSH2 0x23F JUMPI DUP3 SWAP1 SUB PUSH1 0x1F AND DUP3 ADD SWAP2 JUMPDEST POP POP POP POP POP SWAP1 POP SWAP2 SWAP1 POP JUMP JUMPDEST PUSH1 0x2 PUSH1 0x0 SWAP1 SLOAD SWAP1 PUSH2 0x100 EXP SWAP1 DIV PUSH20 0xFFFFFFFFFFFFFFFFFFFFFFFFFFFFFFFFFFFFFFFF AND PUSH20 0xFFFFFFFFFFFFFFFFFFFFFFFFFFFFFFFFFFFFFFFF AND CALLER PUSH20 0xFFFFFFFFFFFFFFFFFFFFFFFFFFFFFFFFFFFFFFFF AND EQ PUSH2 0x2F8 JUMPI PUSH1 0x40 MLOAD PUSH32 0x8C379A000000000000000000000000000000000000000000000000000000000 DUP2 MSTORE PUSH1 0x4 ADD PUSH2 0x2EF SWAP1 PUSH2 0xB85 JUMP JUMPDEST PUSH1 0x40 MLOAD DUP1 SWAP2 SUB SWAP1 REVERT JUMPDEST PUSH1 0x1 DUP2 PUSH1 0x40 MLOAD PUSH2 0x308 SWAP2 SWAP1 PUSH2 0xA30 JUMP JUMPDEST SWAP1 DUP2 MSTORE PUSH1 0x20 ADD PUSH1 0x40 MLOAD DUP1 SWAP2 SUB SWAP1 KECCAK256 PUSH1 0x0 SWAP1 SLOAD SWAP1 PUSH2 0x100 EXP SWAP1 DIV PUSH1 0xFF AND PUSH2 0x363 JUMPI PUSH1 0x40 MLOAD PUSH32 0x8C379A000000000000000000000000000000000000000000000000000000000 DUP2 MSTORE PUSH1 0x4 ADD PUSH2 0x35A SWAP1 PUSH2 0xA93 JUMP JUMPDEST PUSH1 0x40 MLOAD DUP1 SWAP2 SUB SWAP1 REVERT JUMPDEST PUSH1 0x0 PUSH1 0x1 DUP3 PUSH1 0x40 MLOAD PUSH2 0x375 SWAP2 SWAP1 PUSH2 0xA30 JUMP JUMPDEST SWAP1 DUP2 MSTORE PUSH1 0x20 ADD PUSH1 0x40 MLOAD DUP1 SWAP2 SUB SWAP1 KECCAK256 PUSH1 0x0 PUSH2 0x100 EXP DUP2 SLOAD DUP2 PUSH1 0xFF MUL NOT AND SWAP1 DUP4 ISZERO ISZERO MUL OR SWAP1 SSTORE POP DUP1 PUSH1 0x40 MLOAD PUSH2 0x3A8 SWAP2 SWAP1 PUSH2 0xA30 JUMP JUMPDEST PUSH1 0x40 MLOAD DUP1 SWAP2 SUB SWAP1 KECCAK256 PUSH32 0x57BF3AAD622F3CF905E8C86D1E40E1DE99F3EA3A1C14DECF97A8671C24FBE557 TIMESTAMP PUSH1 0x40 MLOAD PUSH2 0x3DF SWAP2 SWAP1 PUSH2 0xBBE JUMP JUMPDEST PUSH1 0x40 MLOAD DUP1 SWAP2 SUB SWAP1 LOG2 POP JUMP JUMPDEST PUSH1 0x0 PUSH1 0x1 DUP4 PUSH1 0x40 MLOAD PUSH2 0x3FC SWAP2 SWAP1 PUSH2 0xA30 JUMP JUMPDEST SWAP1 DUP2 MSTORE PUSH1 0x20 ADD PUSH1 0x40 MLOAD DUP1 SWAP2 SUB SWAP1 KECCAK256 PUSH1 0x0 SWAP1 SLOAD SWAP1 PUSH2 0x100 EXP SWAP1 DIV PUSH1 0xFF AND PUSH2 0x425 JUMPI PUSH1 0x0 SWAP1 POP PUSH2 0x494 JUMP JUMPDEST DUP2 PUSH1 0x40 MLOAD PUSH1 0x20 ADD PUSH2 0x436 SWAP2 SWAP1 PUSH2 0xA30 JUMP JUMPDEST PUSH1 0x40 MLOAD PUSH1 0x20 DUP2 DUP4 SUB SUB DUP2 MSTORE SWAP1 PUSH1 0x40 MSTORE DUP1 MLOAD SWAP1 PUSH1 0x20 ADD KECCAK256 PUSH1 0x0 DUP5 PUSH1 0x40 MLOAD PUSH2 0x45C SWAP2 SWAP1 PUSH2 0xA30 JUMP JUMPDEST SWAP1 DUP2 MSTORE PUSH1 0x20 ADD PUSH1 0x40 MLOAD DUP1 SWAP2 SUB SWAP1 KECCAK256 PUSH1 0x40 MLOAD PUSH1 0x20 ADD PUSH2 0x47A SWAP2 SWAP1 PUSH2 0xC71 JUMP JUMPDEST PUSH1 0x40 MLOAD PUSH1 0x20 DUP2 DUP4 SUB SUB DUP2 MSTORE SWAP1 PUSH1 0x40 MSTORE DUP1 MLOAD SWAP1 PUSH1 0x20 ADD KECCAK256 EQ SWAP1 POP JUMPDEST SWAP3 SWAP2 POP POP JUMP JUMPDEST PUSH1 0x2 PUSH1 0x0 SWAP1 SLOAD SWAP1 PUSH2 0x100 EXP SWAP1 DIV PUSH20 0xFFFFFFFFFFFFFFFFFFFFFFFFFFFFFFFFFFFFFFFF AND PUSH20 0xFFFFFFFFFFFFFFFFFFFFFFFFFFFFFFFFFFFFFFFF AND CALLER PUSH20 0xFFFFFFFFFFFFFFFFFFFFFFFFFFFFFFFFFFFFFFFF AND EQ PUSH2 0x52A JUMPI PUSH1 0x40 MLOAD PUSH32 0x8C379A000000000000000000000000000000000000000000000000000000000 DUP2 MSTORE PUSH1 0x4 ADD PUSH2 0x521 SWAP1 PUSH2 0xB85 JUMP JUMPDEST PUSH1 0x40 MLOAD DUP1 SWAP2 SUB SWAP1 REVERT JUMPDEST PUSH1 0x1 DUP3 PUSH1 0x40 MLOAD PUSH2 0x53A SWAP2 SWAP1 PUSH2 0xA30 JUMP JUMPDEST SWAP1 DUP2 MSTORE PUSH1 0x20 ADD PUSH1 0x40 MLOAD DUP1 SWAP2 SUB SWAP1 KECCAK256 PUSH1 0x0 SWAP1 SLOAD SWAP1 PUSH2 0x100 EXP SWAP1 DIV PUSH1 0xFF AND ISZERO PUSH2 0x596 JUMPI PUSH1 0x40 MLOAD PUSH32 0x8C379A000000000000000000000000000000000000000000000000000000000 DUP2 MSTORE PUSH1 0x4 ADD PUSH2 0x58D SWAP1 PUSH2 0xCD4 JUMP JUMPDEST PUSH1 0x40 MLOAD DUP1 SWAP2 SUB SWAP1 REVERT JUMPDEST DUP1 PUSH1 0x0 DUP4 PUSH1 0x40 MLOAD PUSH2 0x5A7 SWAP2 SWAP1 PUSH2 0xA30 JUMP JUMPDEST SWAP1 DUP2 MSTORE PUSH1 0x20 ADD PUSH1 0x40 MLOAD DUP1 SWAP2 SUB SWAP1 KECCAK256 SWAP1 DUP2 PUSH2 0x5C1 SWAP2 SWAP1 PUSH2 0xE8B JUMP JUMPDEST POP PUSH1 0x1 DUP1 DUP4 PUSH1 0x40 MLOAD PUSH2 0x5D3 SWAP2 SWAP1 PUSH2 0xA30 JUMP JUMPDEST SWAP1 DUP2 MSTORE PUSH1 0x20 ADD PUSH1 0x40 MLOAD DUP1 SWAP2 SUB SWAP1 KECCAK256 PUSH1 0x0 PUSH2 0x100 EXP DUP2 SLOAD DUP2 PUSH1 0xFF MUL NOT AND SWAP1 DUP4 ISZERO ISZERO MUL OR SWAP1 SSTORE POP DUP2 PUSH1 0x40 MLOAD PUSH2 0x606 SWAP2 SWAP1 PUSH2 0xA30 JUMP JUMPDEST PUSH1 0x40 MLOAD DUP1 SWAP2 SUB SWAP1 KECCAK256 PUSH32 0xE7CA35231B44B0FD505C2BD6F738DB12C1E2C45E89C3E89C88F5C225459D51FB DUP3 TIMESTAMP PUSH1 0x40 MLOAD PUSH2 0x63F SWAP3 SWAP2 SWAP1 PUSH2 0xF5D JUMP JUMPDEST PUSH1 0x40 MLOAD DUP1 SWAP2 SUB SWAP1 LOG2 POP POP JUMP JUMPDEST PUSH1 0x2 PUSH1 0x0 SWAP1 SLOAD SWAP1 PUSH2 0x100 EXP SWAP1 DIV PUSH20 0xFFFFFFFFFFFFFFFFFFFFFFFFFFFFFFFFFFFFFFFF AND DUP2 JUMP JUMPDEST PUSH1 0x0 PUSH1 0x1 DUP3 PUSH1 0x40 MLOAD PUSH2 0x683 SWAP2 SWAP1 PUSH2 0xA30 JUMP JUMPDEST SWAP1 DUP2 MSTORE PUSH1 0x20 ADD PUSH1 0x40 MLOAD DUP1 SWAP2 SUB SWAP1 KECCAK256 PUSH1 0x0 SWAP1 SLOAD SWAP1 PUSH2 0x100 EXP SWAP1 DIV PUSH1 0xFF AND SWAP1 POP SWAP2 SWAP1 POP JUMP JUMPDEST PUSH1 0x0 PUSH1 0x40 MLOAD SWAP1 POP SWAP1 JUMP JUMPDEST PUSH1 0x0 DUP1 REVERT JUMPDEST PUSH1 0x0 DUP1 REVERT JUMPDEST PUSH1 0x0 DUP1 REVERT JUMPDEST PUSH1 0x0 DUP1 REVERT JUMPDEST PUSH1 0x0 PUSH1 0x1F NOT PUSH1 0x1F DUP4 ADD AND SWAP1 POP SWAP2 SWAP1 POP JUMP JUMPDEST PUSH32 0x4E487B7100000000000000000000000000000000000000000000000000000000 PUSH1 0x0 MSTORE PUSH1 0x41 PUSH1 0x4 MSTORE PUSH1 0x24 PUSH1 0x0 REVERT JUMPDEST PUSH2 0x70D DUP3 PUSH2 0x6C4 JUMP JUMPDEST DUP2 ADD DUP2 DUP2 LT PUSH8 0xFFFFFFFFFFFFFFFF DUP3 GT OR ISZERO PUSH2 0x72C JUMPI PUSH2 0x72B PUSH2 0x6D5 JUMP JUMPDEST JUMPDEST DUP1 PUSH1 0x40 MSTORE POP POP POP JUMP JUMPDEST PUSH1 0x0 PUSH2 0x73F PUSH2 0x6A6 JUMP JUMPDEST SWAP1 POP PUSH2 0x74B DUP3 DUP3 PUSH2 0x704 JUMP JUMPDEST SWAP2 SWAP1 POP JUMP JUMPDEST PUSH1 0x0 PUSH8 0xFFFFFFFFFFFFFFFF DUP3 GT ISZERO PUSH2 0x76B JUMPI PUSH2 0x76A PUSH2 0x6D5 JUMP JUMPDEST JUMPDEST PUSH2 0x774 DUP3 PUSH2 0x6C4 JUMP JUMPDEST SWAP1 POP PUSH1 0x20 DUP2 ADD SWAP1 POP SWAP2 SWAP1 POP JUMP JUMPDEST DUP3 DUP2 DUP4 CALLDATACOPY PUSH1 0x0 DUP4 DUP4 ADD MSTORE POP POP POP JUMP JUMPDEST PUSH1 0x0 PUSH2 0x7A3 PUSH2 0x79E DUP5 PUSH2 0x750 JUMP JUMPDEST PUSH2 0x735 JUMP JUMPDEST SWAP1 POP DUP3 DUP2 MSTORE PUSH1 0x20 DUP2 ADD DUP5 DUP5 DUP5 ADD GT ISZERO PUSH2 0x7BF JUMPI PUSH2 0x7BE PUSH2 0x6BF JUMP JUMPDEST JUMPDEST PUSH2 0x7CA DUP5 DUP3 DUP6 PUSH2 0x781 JUMP JUMPDEST POP SWAP4 SWAP3 POP POP POP JUMP JUMPDEST PUSH1 0x0 DUP3 PUSH1 0x1F DUP4 ADD SLT PUSH2 0x7E7 JUMPI PUSH2 0x7E6 PUSH2 0x6BA JUMP JUMPDEST JUMPDEST DUP2 CALLDATALOAD PUSH2 0x7F7 DUP5 DUP3 PUSH1 0x20 DUP7 ADD PUSH2 0x790 JUMP JUMPDEST SWAP2 POP POP SWAP3 SWAP2 POP POP JUMP JUMPDEST PUSH1 0x0 PUSH1 0x20 DUP3 DUP5 SUB SLT ISZERO PUSH2 0x816 JUMPI PUSH2 0x815 PUSH2 0x6B0 JUMP JUMPDEST JUMPDEST PUSH1 0x0 DUP3 ADD CALLDATALOAD PUSH8 0xFFFFFFFFFFFFFFFF DUP2 GT ISZERO PUSH2 0x834 JUMPI PUSH2 0x833 PUSH2 0x6B5 JUMP JUMPDEST JUMPDEST PUSH2 0x840 DUP5 DUP3 DUP6 ADD PUSH2 0x7D2 JUMP JUMPDEST SWAP2 POP POP SWAP3 SWAP2 POP POP JUMP JUMPDEST PUSH1 0x0 DUP2 MLOAD SWAP1 POP SWAP2 SWAP1 POP JUMP JUMPDEST PUSH1 0x0 DUP3 DUP3 MSTORE PUSH1 0x20 DUP3 ADD SWAP1 POP SWAP3 SWAP2 POP POP JUMP JUMPDEST PUSH1 0x0 JUMPDEST DUP4 DUP2 LT ISZERO PUSH2 0x883 JUMPI DUP1 DUP3 ADD MLOAD DUP2 DUP5 ADD MSTORE PUSH1 0x20 DUP2 ADD SWAP1 POP PUSH2 0x868 JUMP JUMPDEST PUSH1 0x0 DUP5 DUP5 ADD MSTORE POP POP POP POP JUMP JUMPDEST PUSH1 0x0 PUSH2 0x89A DUP3 PUSH2 0x849 JUMP JUMPDEST PUSH2 0x8A4 DUP2 DUP6 PUSH2 0x854 JUMP JUMPDEST SWAP4 POP PUSH2 0x8B4 DUP2 DUP6 PUSH1 0x20 DUP7 ADD PUSH2 0x865 JUMP JUMPDEST PUSH2 0x8BD DUP2 PUSH2 0x6C4 JUMP JUMPDEST DUP5 ADD SWAP2 POP POP SWAP3 SWAP2 POP POP JUMP JUMPDEST PUSH1 0x0 PUSH1 0x20 DUP3 ADD SWAP1 POP DUP2 DUP2 SUB PUSH1 0x0 DUP4 ADD MSTORE PUSH2 0x8E2 DUP2 DUP5 PUSH2 0x88F JUMP JUMPDEST SWAP1 POP SWAP3 SWAP2 POP POP JUMP JUMPDEST PUSH1 0x0 DUP1 PUSH1 0x40 DUP4 DUP6 SUB SLT ISZERO PUSH2 0x901 JUMPI PUSH2 0x900 PUSH2 0x6B0 JUMP JUMPDEST JUMPDEST PUSH1 0x0 DUP4 ADD CALLDATALOAD PUSH8 0xFFFFFFFFFFFFFFFF DUP2 GT ISZERO PUSH2 0x91F JUMPI PUSH2 0x91E PUSH2 0x6B5 JUMP JUMPDEST JUMPDEST PUSH2 0x92B DUP6 DUP3 DUP7 ADD PUSH2 0x7D2 JUMP JUMPDEST SWAP3 POP POP PUSH1 0x20 DUP4 ADD CALLDATALOAD PUSH8 0xFFFFFFFFFFFFFFFF DUP2 GT ISZERO PUSH2 0x94C JUMPI PUSH2 0x94B PUSH2 0x6B5 JUMP JUMPDEST JUMPDEST PUSH2 0x958 DUP6 DUP3 DUP7 ADD PUSH2 0x7D2 JUMP JUMPDEST SWAP2 POP POP SWAP3 POP SWAP3 SWAP1 POP JUMP JUMPDEST PUSH1 0x0 DUP2 ISZERO ISZERO SWAP1 POP SWAP2 SWAP1 POP JUMP JUMPDEST PUSH2 0x977 DUP2 PUSH2 0x962 JUMP JUMPDEST DUP3 MSTORE POP POP JUMP JUMPDEST PUSH1 0x0 PUSH1 0x20 DUP3 ADD SWAP1 POP PUSH2 0x992 PUSH1 0x0 DUP4 ADD DUP5 PUSH2 0x96E JUMP JUMPDEST SWAP3 SWAP2 POP POP JUMP JUMPDEST PUSH1 0x0 PUSH20 0xFFFFFFFFFFFFFFFFFFFFFFFFFFFFFFFFFFFFFFFF DUP3 AND SWAP1 POP SWAP2 SWAP1 POP JUMP JUMPDEST PUSH1 0x0 PUSH2 0x9C3 DUP3 PUSH2 0x998 JUMP JUMPDEST SWAP1 POP SWAP2 SWAP1 POP JUMP JUMPDEST PUSH2 0x9D3 DUP2 PUSH2 0x9B8 JUMP JUMPDEST DUP3 MSTORE POP POP JUMP JUMPDEST PUSH1 0x0 PUSH1 0x20 DUP3 ADD SWAP1 POP PUSH2 0x9EE PUSH1 0x0 DUP4 ADD DUP5 PUSH2 0x9CA JUMP JUMPDEST SWAP3 SWAP2 POP POP JUMP JUMPDEST PUSH1 0x0 DUP2 SWAP1 POP SWAP3 SWAP2 POP POP JUMP JUMPDEST PUSH1 0x0 PUSH2 0xA0A DUP3 PUSH2 0x849 JUMP JUMPDEST PUSH2 0xA14 DUP2 DUP6 PUSH2 0x9F4 JUMP JUMPDEST SWAP4 POP PUSH2 0xA24 DUP2 DUP6 PUSH1 0x20 DUP7 ADD PUSH2 0x865 JUMP JUMPDEST DUP1 DUP5 ADD SWAP2 POP POP SWAP3 SWAP2 POP POP JUMP JUMPDEST PUSH1 0x0 PUSH2 0xA3C DUP3 DUP5 PUSH2 0x9FF JUMP JUMPDEST SWAP2 POP DUP2 SWAP1 POP SWAP3 SWAP2 POP POP JUMP JUMPDEST PUSH32 0x436572746966696361746520646F6573206E6F74206578697374000000000000 PUSH1 0x0 DUP3 ADD MSTORE POP JUMP JUMPDEST PUSH1 0x0 PUSH2 0xA7D PUSH1 0x1A DUP4 PUSH2 0x854 JUMP JUMPDEST SWAP2 POP PUSH2 0xA88 DUP3 PUSH2 0xA47 JUMP JUMPDEST PUSH1 0x20 DUP3 ADD SWAP1 POP SWAP2 SWAP1 POP JUMP JUMPDEST PUSH1 0x0 PUSH1 0x20 DUP3 ADD SWAP1 POP DUP2 DUP2 SUB PUSH1 0x0 DUP4 ADD MSTORE PUSH2 0xAAC DUP2 PUSH2 0xA70 JUMP JUMPDEST SWAP1 POP SWAP2 SWAP1 POP JUMP JUMPDEST PUSH32 0x4E487B7100000000000000000000000000000000000000000000000000000000 PUSH1 0x0 MSTORE PUSH1 0x22 PUSH1 0x4 MSTORE PUSH1 0x24 PUSH1 0x0 REVERT JUMPDEST PUSH1 0x0 PUSH1 0x2 DUP3 DIV SWAP1 POP PUSH1 0x1 DUP3 AND DUP1 PUSH2 0xAFA JUMPI PUSH1 0x7F DUP3 AND SWAP2 POP JUMPDEST PUSH1 0x20 DUP3 LT DUP2 SUB PUSH2 0xB0D JUMPI PUSH2 0xB0C PUSH2 0xAB3 JUMP JUMPDEST JUMPDEST POP SWAP2 SWAP1 POP JUMP JUMPDEST PUSH32 0x4F6E6C79206F776E65722063616E2063616C6C20746869732066756E6374696F PUSH1 0x0 DUP3 ADD MSTORE PUSH32 0x6E00000000000000000000000000000000000000000000000000000000000000 PUSH1 0x20 DUP3 ADD MSTORE POP JUMP JUMPDEST PUSH1 0x0 PUSH2 0xB6F PUSH1 0x21 DUP4 PUSH2 0x854 JUMP JUMPDEST SWAP2 POP PUSH2 0xB7A DUP3 PUSH2 0xB13 JUMP JUMPDEST PUSH1 0x40 DUP3 ADD SWAP1 POP SWAP2 SWAP1 POP JUMP JUMPDEST PUSH1 0x0 PUSH1 0x20 DUP3 ADD SWAP1 POP DUP2 DUP2 SUB PUSH1 0x0 DUP4 ADD MSTORE PUSH2 0xB9E DUP2 PUSH2 0xB62 JUMP JUMPDEST SWAP1 POP SWAP2 SWAP1 POP JUMP JUMPDEST PUSH1 0x0 DUP2 SWAP1 POP SWAP2 SWAP1 POP JUMP JUMPDEST PUSH2 0xBB8 DUP2 PUSH2 0xBA5 JUMP JUMPDEST DUP3 MSTORE POP POP JUMP JUMPDEST PUSH1 0x0 PUSH1 0x20 DUP3 ADD SWAP1 POP PUSH2 0xBD3 PUSH1 0x0 DUP4 ADD DUP5 PUSH2 0xBAF JUMP JUMPDEST SWAP3 SWAP2 POP POP JUMP JUMPDEST PUSH1 0x0 DUP2 SWAP1 POP DUP2 PUSH1 0x0 MSTORE PUSH1 0x20 PUSH1 0x0 KECCAK256 SWAP1 POP SWAP2 SWAP1 POP JUMP JUMPDEST PUSH1 0x0 DUP2 SLOAD PUSH2 0xBFB DUP2 PUSH2 0xAE2 JUMP JUMPDEST PUSH2 0xC05 DUP2 DUP7 PUSH2 0x9F4 JUMP JUMPDEST SWAP5 POP PUSH1 0x1 DUP3 AND PUSH1 0x0 DUP2 EQ PUSH2 0xC20 JUMPI PUSH1 0x1 DUP2 EQ PUSH2 0xC35 JUMPI PUSH2 0xC68 JUMP JUMPDEST PUSH1 0xFF NOT DUP4 AND DUP7 MSTORE DUP2 ISZERO ISZERO DUP3 MUL DUP7 ADD SWAP4 POP PUSH2 0xC68 JUMP JUMPDEST PUSH2 0xC3E DUP6 PUSH2 0xBD9 JUMP JUMPDEST PUSH1 0x0 JUMPDEST DUP4 DUP2 LT ISZERO PUSH2 0xC60 JUMPI DUP2 SLOAD DUP2 DUP10 ADD MSTORE PUSH1 0x1 DUP3 ADD SWAP2 POP PUSH1 0x20 DUP2 ADD SWAP1 POP PUSH2 0xC41 JUMP JUMPDEST DUP4 DUP9 ADD SWAP6 POP POP POP JUMPDEST POP POP POP SWAP3 SWAP2 POP POP JUMP JUMPDEST PUSH1 0x0 PUSH2 0xC7D DUP3 DUP5 PUSH2 0xBEE JUMP JUMPDEST SWAP2 POP DUP2 SWAP1 POP SWAP3 SWAP2 POP POP JUMP JUMPDEST PUSH32 0x436572746966696361746520494420616C726561647920657869737473000000 PUSH1 0x0 DUP3 ADD MSTORE POP JUMP JUMPDEST PUSH1 0x0 PUSH2 0xCBE PUSH1 0x1D DUP4 PUSH2 0x854 JUMP JUMPDEST SWAP2 POP PUSH2 0xCC9 DUP3 PUSH2 0xC88 JUMP JUMPDEST PUSH1 0x20 DUP3 ADD SWAP1 POP SWAP2 SWAP1 POP JUMP JUMPDEST PUSH1 0x0 PUSH1 0x20 DUP3 ADD SWAP1 POP DUP2 DUP2 SUB PUSH1 0x0 DUP4 ADD MSTORE PUSH2 0xCED DUP2 PUSH2 0xCB1 JUMP JUMPDEST SWAP1 POP SWAP2 SWAP1 POP JUMP JUMPDEST PUSH1 0x0 PUSH1 0x20 PUSH1 0x1F DUP4 ADD DIV SWAP1 POP SWAP2 SWAP1 POP JUMP JUMPDEST PUSH1 0x0 DUP3 DUP3 SHL SWAP1 POP SWAP3 SWAP2 POP POP JUMP JUMPDEST PUSH1 0x0 PUSH1 0x8 DUP4 MUL PUSH2 0xD41 PUSH32 0xFFFFFFFFFFFFFFFFFFFFFFFFFFFFFFFFFFFFFFFFFFFFFFFFFFFFFFFFFFFFFFFF DUP3 PUSH2 0xD04 JUMP JUMPDEST PUSH2 0xD4B DUP7 DUP4 PUSH2 0xD04 JUMP JUMPDEST SWAP6 POP DUP1 NOT DUP5 AND SWAP4 POP DUP1 DUP7 AND DUP5 OR SWAP3 POP POP POP SWAP4 SWAP3 POP POP POP JUMP JUMPDEST PUSH1 0x0 DUP2 SWAP1 POP SWAP2 SWAP1 POP JUMP JUMPDEST PUSH1 0x0 PUSH2 0xD88 PUSH2 0xD83 PUSH2 0xD7E DUP5 PUSH2 0xBA5 JUMP JUMPDEST PUSH2 0xD63 JUMP JUMPDEST PUSH2 0xBA5 JUMP JUMPDEST SWAP1 POP SWAP2 SWAP1 POP JUMP JUMPDEST PUSH1 0x0 DUP2 SWAP1 POP SWAP2 SWAP1 POP JUMP JUMPDEST PUSH2 0xDA2 DUP4 PUSH2 0xD6D JUMP JUMPDEST PUSH2 0xDB6 PUSH2 0xDAE DUP3 PUSH2 0xD8F JUMP JUMPDEST DUP5 DUP5 SLOAD PUSH2 0xD11 JUMP JUMPDEST DUP3 SSTORE POP POP POP POP JUMP JUMPDEST PUSH1 0x0 SWAP1 JUMP JUMPDEST PUSH2 0xDCB PUSH2 0xDBE JUMP JUMPDEST PUSH2 0xDD6 DUP2 DUP5 DUP5 PUSH2 0xD99 JUMP JUMPDEST POP POP POP JUMP JUMPDEST JUMPDEST DUP2 DUP2 LT ISZERO PUSH2 0xDFA JUMPI PUSH2 0xDEF PUSH1 0x0 DUP3 PUSH2 0xDC3 JUMP JUMPDEST PUSH1 0x1 DUP2 ADD SWAP1 POP PUSH2 0xDDC JUMP JUMPDEST POP POP JUMP JUMPDEST PUSH1 0x1F DUP3 GT ISZERO PUSH2 0xE3F JUMPI PUSH2 0xE10 DUP2 PUSH2 0xBD9 JUMP JUMPDEST PUSH2 0xE19 DUP5 PUSH2 0xCF4 JUMP JUMPDEST DUP2 ADD PUSH1 0x20 DUP6 LT ISZERO PUSH2 0xE28 JUMPI DUP2 SWAP1 POP JUMPDEST PUSH2 0xE3C PUSH2 0xE34 DUP6 PUSH2 0xCF4 JUMP JUMPDEST DUP4 ADD DUP3 PUSH2 0xDDB JUMP JUMPDEST POP POP JUMPDEST POP POP POP JUMP JUMPDEST PUSH1 0x0 DUP3 DUP3 SHR SWAP1 POP SWAP3 SWAP2 POP POP JUMP JUMPDEST PUSH1 0x0 PUSH2 0xE62 PUSH1 0x0 NOT DUP5 PUSH1 0x8 MUL PUSH2 0xE44 JUMP JUMPDEST NOT DUP1 DUP4 AND SWAP2 POP POP SWAP3 SWAP2 POP POP JUMP JUMPDEST PUSH1 0x0 PUSH2 0xE7B DUP4 DUP4 PUSH2 0xE51 JUMP JUMPDEST SWAP2 POP DUP3 PUSH1 0x2 MUL DUP3 OR SWAP1 POP SWAP3 SWAP2 POP POP JUMP JUMPDEST PUSH2 0xE94 DUP3 PUSH2 0x849 JUMP JUMPDEST PUSH8 0xFFFFFFFFFFFFFFFF DUP2 GT ISZERO PUSH2 0xEAD JUMPI PUSH2 0xEAC PUSH2 0x6D5 JUMP JUMPDEST JUMPDEST PUSH2 0xEB7 DUP3 SLOAD PUSH2 0xAE2 JUMP JUMPDEST PUSH2 0xEC2 DUP3 DUP3 DUP6 PUSH2 0xDFE JUMP JUMPDEST PUSH1 0x0 PUSH1 0x20 SWAP1 POP PUSH1 0x1F DUP4 GT PUSH1 0x1 DUP2 EQ PUSH2 0xEF5 JUMPI PUSH1 0x0 DUP5 ISZERO PUSH2 0xEE3 JUMPI DUP3 DUP8 ADD MLOAD SWAP1 POP JUMPDEST PUSH2 0xEED DUP6 DUP3 PUSH2 0xE6F JUMP JUMPDEST DUP7 SSTORE POP PUSH2 0xF55 JUMP JUMPDEST PUSH1 0x1F NOT DUP5 AND PUSH2 0xF03 DUP7 PUSH2 0xBD9 JUMP JUMPDEST PUSH1 0x0 JUMPDEST DUP3 DUP2 LT ISZERO PUSH2 0xF2B JUMPI DUP5 DUP10 ADD MLOAD DUP3 SSTORE PUSH1 0x1 DUP3 ADD SWAP2 POP PUSH1 0x20 DUP6 ADD SWAP5 POP PUSH1 0x20 DUP2 ADD SWAP1 POP PUSH2 0xF06 JUMP JUMPDEST DUP7 DUP4 LT ISZERO PUSH2 0xF48 JUMPI DUP5 DUP10 ADD MLOAD PUSH2 0xF44 PUSH1 0x1F DUP10 AND DUP3 PUSH2 0xE51 JUMP JUMPDEST DUP4 SSTORE POP JUMPDEST PUSH1 0x1 PUSH1 0x2 DUP9 MUL ADD DUP9 SSTORE POP POP POP JUMPDEST POP POP POP POP POP POP JUMP JUMPDEST PUSH1 0x0 PUSH1 0x40 DUP3 ADD SWAP1 POP DUP2 DUP2 SUB PUSH1 0x0 DUP4 ADD MSTORE PUSH2 0xF77 DUP2 DUP6 PUSH2 0x88F JUMP JUMPDEST SWAP1 POP PUSH2 0xF86 PUSH1 0x20 DUP4 ADD DUP5 PUSH2 0xBAF JUMP JUMPDEST SWAP4 SWAP3 POP POP POP JUMP INVALID LOG2 PUSH5 0x6970667358 0x22 SLT KECCAK256 SUB 0xAE STOP 0xD7 0xD1 DUP10 0xC0 SELFBALANCE 0x4F OR NUMBER 0xBB PUSH9 0x6C161F06C61957D35C 0xCA 0xD8 0xA5 0xD5 GAS 0xA6 SWAP12 0xB8 0xDB 0x4A PUSH5 0x736F6C6343 STOP ADDMOD SGT STOP CALLER "},"methodIdentifiers":{"certificateRegistered(string)":"fa66ade0","getCertificateHash(string)":"0499ba6f","owner()":"8da5cb5b","revokeCertificate(string)":"142e1542","storeCertificate(string,string)":"678d3644","verifyCertificate(string,string)":"2751f71b"}}}}}