{
  "_format": "hh-sol-artifact-1",
  "contractName": "CertificateRegistry",
  "sourceName": "contracts/CertificateRegistry.sol",
  "abi": [
    {
      "anonymous": false,
      "inputs": [
        {
          "indexed": true,
          "internalType": "string",
          "name": "certificateId",
          "type": "string"
        },
        {
          "indexed": false,
          "internalType": "string",
          "name": "certificateHash",
          "type": "string"
        },
        {
          "indexed": true,
          "internalType": "address",
          "name": "issuer",
          "type": "address"
        },
        {
          "indexed": false,
          "internalType": "uint256",
          "name": "timestamp",
          "type": "uint256"
        }
      ],
      "name": "CertificateIssued",
      "type": "event"
    },
    {
      "anonymous": false,
      "inputs": [
        {
          "indexed": true,
          "internalType": "string",
          "name": "certificateId",
          "type": "string"
        },
        {
          "indexed": false,
          "internalType": "bool",
          "name": "isValid",
          "type": "bool"
        },
        {
          "indexed": false,
          "internalType": "uint256",
          "name": "timestamp",
          "type": "uint256"
        }
      ],
      "name": "CertificateVerified",
      "type": "event"
    },
    {
      "inputs": [
        {
          "internalType": "string",
          "name": "certificateId",
          "type": "string"
        }
      ],
      "name": "certificateExists",
      "outputs": [
        {
          "internalType": "bool",
          "name": "",
          "type": "bool"
        }
      ],
      "stateMutability": "view",
      "type": "function"
    },
    {
      "inputs": [
        {
          "internalType": "uint256",
          "name": "index",
          "type": "uint256"
        }
      ],
      "name": "getCertificateAtIndex",
      "outputs": [
        {
          "internalType": "string",
          "name": "",
          "type": "string"
        }
      ],
      "stateMutability": "view",
      "type": "function"
    },
    {
      "inputs": [
        {
          "internalType": "string",
          "name": "certificateId",
          "type": "string"
        }
      ],
      "name": "getCertificateHash",
      "outputs": [
        {
          "internalType": "string",
          "name": "",
          "type": "string"
        }
      ],
      "stateMutability": "view",
      "type": "function"
    },
    {
      "inputs": [
        {
          "internalType": "string",
          "name": "certificateId",
          "type": "string"
        }
      ],
      "name": "getCertificateIssuer",
      "outputs": [
        {
          "internalType": "address",
          "name": "",
          "type": "address"
        }
      ],
      "stateMutability": "view",
      "type": "function"
    },
    {
      "inputs": [],
      "name": "getTotalIssuedCertificates",
      "outputs": [
        {
          "internalType": "uint256",
          "name": "",
          "type": "uint256"
        }
      ],
      "stateMutability": "view",
      "type": "function"
    },
    {
      "inputs": [
        {
          "internalType": "string",
          "name": "certificateId",
          "type": "string"
        },
        {
          "internalType": "string",
          "name": "certificateHash",
          "type": "string"
        }
      ],
      "name": "issueCertificate",
      "outputs": [],
      "stateMutability": "nonpayable",
      "type": "function"
    },
    {
      "inputs": [
        {
          "internalType": "uint256",
          "name": "",
          "type": "uint256"
        }
      ],
      "name": "issuedCertificates",
      "outputs": [
        {
          "internalType": "string",
          "name": "",
          "type": "string"
        }
      ],
      "stateMutability": "view",
      "type": "function"
    },
    {
      "inputs": [
        {
          "internalType": "string",
          "name": "certificateId",
          "type": "string"
        },
        {
          "internalType": "string",
          "name": "providedHash",
          "type": "string"
        }
      ],
      "name": "verifyCertificate",
      "outputs": [
        {
          "internalType": "bool",
          "name": "",
          "type": "bool"
        }
      ],
      "stateMutability": "nonpayable",
      "type": "function"
    }
  ],
  "bytecode": "0x608060405234801561001057600080fd5b506113a3806100206000396000f3fe608060405234801561001057600080fd5b50600436106100885760003560e01c806325bc3fee1161005b57806325bc3fee146101395780632751f71b14610157578063440c4fad146101875780636bd5b694146101b757610088565b80630499ba6f1461008d5780630655f037146100bd5780630a0585f7146100ed578063211bbe711461011d575b600080fd5b6100a760048036038101906100a29190610a7d565b6101e7565b6040516100b49190610b45565b60405180910390f35b6100d760048036038101906100d29190610a7d565b610302565b6040516100e49190610b82565b60405180910390f35b61010760048036038101906101029190610bd3565b610337565b6040516101149190610b45565b60405180910390f35b61013760048036038101906101329190610c00565b61042e565b005b610141610681565b60405161014e9190610c87565b60405180910390f35b610171600480360381019061016c9190610c00565b61068e565b60405161017e9190610b82565b60405180910390f35b6101a1600480360381019061019c9190610a7d565b6107c4565b6040516101ae9190610ce3565b60405180910390f35b6101d160048036038101906101cc9190610bd3565b610877565b6040516101de9190610b45565b60405180910390f35b60606002826040516101f99190610d3a565b908152602001604051809103902060009054906101000a900460ff16610254576040517f08c379a000000000000000000000000000000000000000000000000000000000815260040161024b90610d9d565b60405180910390fd5b6000826040516102649190610d3a565b9081526020016040518091039020805461027d90610dec565b80601f01602080910402602001604051908101604052809291908181526020018280546102a990610dec565b80156102f65780601f106102cb576101008083540402835291602001916102f6565b820191906000526020600020905b8154815290600101906020018083116102d957829003601f168201915b50505050509050919050565b60006002826040516103149190610d3a565b908152602001604051809103902060009054906101000a900460ff169050919050565b60606003805490508210610380576040517f08c379a000000000000000000000000000000000000000000000000000000000815260040161037790610e69565b60405180910390fd5b6003828154811061039457610393610e89565b5b9060005260206000200180546103a990610dec565b80601f01602080910402602001604051908101604052809291908181526020018280546103d590610dec565b80156104225780601f106103f757610100808354040283529160200191610422565b820191906000526020600020905b81548152906001019060200180831161040557829003601f168201915b50505050509050919050565b6000825111610472576040517f08c379a000000000000000000000000000000000000000000000000000000000815260040161046990610f04565b60405180910390fd5b60008151116104b6576040517f08c379a00000000000000000000000000000000000000000000000000000000081526004016104ad90610f70565b60405180910390fd5b6002826040516104c69190610d3a565b908152602001604051809103902060009054906101000a900460ff1615610522576040517f08c379a000000000000000000000000000000000000000000000000000000000815260040161051990610fdc565b60405180910390fd5b806000836040516105339190610d3a565b9081526020016040518091039020908161054d91906111a8565b503360018360405161055f9190610d3a565b908152602001604051809103902060006101000a81548173ffffffffffffffffffffffffffffffffffffffff021916908373ffffffffffffffffffffffffffffffffffffffff16021790555060016002836040516105bd9190610d3a565b908152602001604051809103902060006101000a81548160ff02191690831515021790555060038290806001815401808255809150506001900390600052602060002001600090919091909150908161061691906111a8565b503373ffffffffffffffffffffffffffffffffffffffff168260405161063c9190610d3a565b60405180910390207ffa7468fb48fb83622c2209222cf44e88523933fddb73d3b07ecf89400639b3ba834260405161067592919061127a565b60405180910390a35050565b6000600380549050905090565b60006002836040516106a09190610d3a565b908152602001604051809103902060009054906101000a900460ff166106fb576040517f08c379a00000000000000000000000000000000000000000000000000000000081526004016106f290610d9d565b60405180910390fd5b60008260405160200161070e9190610d3a565b604051602081830303815290604052805190602001206000856040516107349190610d3a565b9081526020016040518091039020604051602001610752919061132d565b60405160208183030381529060405280519060200120149050836040516107799190610d3a565b60405180910390207fdf8844e71fd10b8e7795ebf19c1650d566bab9b0b2f18a6373153f9aced9fc8982426040516107b2929190611344565b60405180910390a28091505092915050565b60006002826040516107d69190610d3a565b908152602001604051809103902060009054906101000a900460ff16610831576040517f08c379a000000000000000000000000000000000000000000000000000000000815260040161082890610d9d565b60405180910390fd5b6001826040516108419190610d3a565b908152602001604051809103902060009054906101000a900473ffffffffffffffffffffffffffffffffffffffff169050919050565b6003818154811061088757600080fd5b9060005260206000200160009150905080546108a290610dec565b80601f01602080910402602001604051908101604052809291908181526020018280546108ce90610dec565b801561091b5780601f106108f05761010080835404028352916020019161091b565b820191906000526020600020905b8154815290600101906020018083116108fe57829003601f168201915b505050505081565b6000604051905090565b600080fd5b600080fd5b600080fd5b600080fd5b6000601f19601f8301169050919050565b7f4e487b7100000000000000000000000000000000000000000000000000000000600052604160045260246000fd5b61098a82610941565b810181811067ffffffffffffffff821117156109a9576109a8610952565b5b80604052505050565b60006109bc610923565b90506109c88282610981565b919050565b600067ffffffffffffffff8211156109e8576109e7610952565b5b6109f182610941565b9050602081019050919050565b82818337600083830152505050565b6000610a20610a1b846109cd565b6109b2565b905082815260208101848484011115610a3c57610a3b61093c565b5b610a478482856109fe565b509392505050565b600082601f830112610a6457610a63610937565b5b8135610a74848260208601610a0d565b91505092915050565b600060208284031215610a9357610a9261092d565b5b600082013567ffffffffffffffff811115610ab157610ab0610932565b5b610abd84828501610a4f565b91505092915050565b600081519050919050565b600082825260208201905092915050565b60005b83811015610b00578082015181840152602081019050610ae5565b60008484015250505050565b6000610b1782610ac6565b610b218185610ad1565b9350610b31818560208601610ae2565b610b3a81610941565b840191505092915050565b60006020820190508181036000830152610b5f8184610b0c565b905092915050565b60008115159050919050565b610b7c81610b67565b82525050565b6000602082019050610b976000830184610b73565b92915050565b6000819050919050565b610bb081610b9d565b8114610bbb57600080fd5b50565b600081359050610bcd81610ba7565b92915050565b600060208284031215610be957610be861092d565b5b6000610bf784828501610bbe565b91505092915050565b60008060408385031215610c1757610c1661092d565b5b600083013567ffffffffffffffff811115610c3557610c34610932565b5b610c4185828601610a4f565b925050602083013567ffffffffffffffff811115610c6257610c61610932565b5b610c6e85828601610a4f565b9150509250929050565b610c8181610b9d565b82525050565b6000602082019050610c9c6000830184610c78565b92915050565b600073ffffffffffffffffffffffffffffffffffffffff82169050919050565b6000610ccd82610ca2565b9050919050565b610cdd81610cc2565b82525050565b6000602082019050610cf86000830184610cd4565b92915050565b600081905092915050565b6000610d1482610ac6565b610d1e8185610cfe565b9350610d2e818560208601610ae2565b80840191505092915050565b6000610d468284610d09565b915081905092915050565b7f4365727469666963617465206e6f7420666f756e640000000000000000000000600082015250565b6000610d87601583610ad1565b9150610d9282610d51565b602082019050919050565b60006020820190508181036000830152610db681610d7a565b9050919050565b7f4e487b7100000000000000000000000000000000000000000000000000000000600052602260045260246000fd5b60006002820490506001821680610e0457607f821691505b602082108103610e1757610e16610dbd565b5b50919050565b7f496e646578206f7574206f6620626f756e647300000000000000000000000000600082015250565b6000610e53601383610ad1565b9150610e5e82610e1d565b602082019050919050565b60006020820190508181036000830152610e8281610e46565b9050919050565b7f4e487b7100000000000000000000000000000000000000000000000000000000600052603260045260246000fd5b7f43657274696669636174652049442063616e6e6f7420626520656d7074790000600082015250565b6000610eee601e83610ad1565b9150610ef982610eb8565b602082019050919050565b60006020820190508181036000830152610f1d81610ee1565b9050919050565b7f436572746966696361746520686173682063616e6e6f7420626520656d707479600082015250565b6000610f5a602083610ad1565b9150610f6582610f24565b602082019050919050565b60006020820190508181036000830152610f8981610f4d565b9050919050565b7f436572746966696361746520616c726561647920697373756564000000000000600082015250565b6000610fc6601a83610ad1565b9150610fd182610f90565b602082019050919050565b60006020820190508181036000830152610ff581610fb9565b9050919050565b60008190508160005260206000209050919050565b60006020601f8301049050919050565b600082821b905092915050565b60006008830261105e7fffffffffffffffffffffffffffffffffffffffffffffffffffffffffffffffff82611021565b6110688683611021565b95508019841693508086168417925050509392505050565b6000819050919050565b60006110a56110a061109b84610b9d565b611080565b610b9d565b9050919050565b6000819050919050565b6110bf8361108a565b6110d36110cb826110ac565b84845461102e565b825550505050565b600090565b6110e86110db565b6110f38184846110b6565b505050565b5b818110156111175761110c6000826110e0565b6001810190506110f9565b5050565b601f82111561115c5761112d81610ffc565b61113684611011565b81016020851015611145578190505b61115961115185611011565b8301826110f8565b50505b505050565b600082821c905092915050565b600061117f60001984600802611161565b1980831691505092915050565b6000611198838361116e565b9150826002028217905092915050565b6111b182610ac6565b67ffffffffffffffff8111156111ca576111c9610952565b5b6111d48254610dec565b6111df82828561111b565b600060209050601f8311600181146112125760008415611200578287015190505b61120a858261118c565b865550611272565b601f19841661122086610ffc565b60005b8281101561124857848901518255600182019150602085019450602081019050611223565b868310156112655784890151611261601f89168261116e565b8355505b6001600288020188555050505b505050505050565b600060408201905081810360008301526112948185610b0c565b90506112a36020830184610c78565b9392505050565b600081546112b781610dec565b6112c18186610cfe565b945060018216600081146112dc57600181146112f157611324565b60ff1983168652811515820286019350611324565b6112fa85610ffc565b60005b8381101561131c578154818901526001820191506020810190506112fd565b838801955050505b50505092915050565b600061133982846112aa565b915081905092915050565b60006040820190506113596000830185610b73565b6113666020830184610c78565b939250505056fea2646970667358221220b5de0e7f48745839fe223ef3b1e268f4157c5ab69d3be7811fe93204dc7e4b7264736f6c63430008140033",
  "linkReferences": {},
  "deployedLinkReferences": {}
}