{"contracts/CertificateRegistry.sol":{"CertificateRegistry":{"abi":[{"anonymous":false,"inputs":[{"indexed":true,"internalType":"string","name":"certificateId","type":"string"},{"indexed":false,"internalType":"string","name":"certificateHash","type":"string"},{"indexed":true,"internalType":"address","name":"issuer","type":"address"},{"indexed":false,"internalType":"uint256","name":"timestamp","type":"uint256"}],"name":"CertificateIssued","type":"event"},{"anonymous":false,"inputs":[{"indexed":true,"internalType":"string","name":"certificateId","type":"string"},{"indexed":false,"internalType":"bool","name":"isValid","type":"bool"},{"indexed":false,"internalType":"uint256","name":"timestamp","type":"uint256"}],"name":"CertificateVerified","type":"event"},{"inputs":[{"internalType":"string","name":"certificateId","type":"string"}],"name":"certificateExists","outputs":[{"internalType":"bool","name":"","type":"bool"}],"stateMutability":"view","type":"function"},{"inputs":[{"internalType":"uint256","name":"index","type":"uint256"}],"name":"getCertificateAtIndex","outputs":[{"internalType":"string","name":"","type":"string"}],"stateMutability":"view","type":"function"},{"inputs":[{"internalType":"string","name":"certificateId","type":"string"}],"name":"getCertificateHash","outputs":[{"internalType":"string","name":"","type":"string"}],"stateMutability":"view","type":"function"},{"inputs":[{"internalType":"string","name":"certificateId","type":"string"}],"name":"getCertificateIssuer","outputs":[{"internalType":"address","name":"","type":"address"}],"stateMutability":"view","type":"function"},{"inputs":[],"name":"getTotalIssuedCertificates","outputs":[{"internalType":"uint256","name":"","type":"uint256"}],"stateMutability":"view","type":"function"},{"inputs":[{"internalType":"string","name":"certificateId","type":"string"},{"internalType":"string","name":"certificateHash","type":"string"}],"name":"issueCertificate","outputs":[],"stateMutability":"nonpayable","type":"function"},{"inputs":[{"internalType":"uint256","name":"","type":"uint256"}],"name":"issuedCertificates","outputs":[{"internalType":"string","name":"","type":"string"}],"stateMutability":"view","type":"function"},{"inputs":[{"internalType":"string","name":"certificateId","type":"string"},{"internalType":"string","name":"providedHash","type":"string"}],"name":"verifyCertificate","outputs":[{"internalType":"bool","name":"","type":"bool"}],"stateMutability":"nonpayable","type":"function"}],"evm":{"bytecode":{"linkReferences":{},"object":"608060405234801561001057600080fd5b506113a3806100206000396000f3fe608060405234801561001057600080fd5b50600436106100885760003560e01c806325bc3fee1161005b57806325bc3fee146101395780632751f71b14610157578063440c4fad146101875780636bd5b694146101b757610088565b80630499ba6f1461008d5780630655f037146100bd5780630a0585f7146100ed578063211bbe711461011d575b600080fd5b6100a760048036038101906100a29190610a7d565b6101e7565b6040516100b49190610b45565b60405180910390f35b6100d760048036038101906100d29190610a7d565b610302565b6040516100e49190610b82565b60405180910390f35b61010760048036038101906101029190610bd3565b610337565b6040516101149190610b45565b60405180910390f35b61013760048036038101906101329190610c00565b61042e565b005b610141610681565b60405161014e9190610c87565b60405180910390f35b610171600480360381019061016c9190610c00565b61068e565b60405161017e9190610b82565b60405180910390f35b6101a1600480360381019061019c9190610a7d565b6107c4565b6040516101ae9190610ce3565b60405180910390f35b6101d160048036038101906101cc9190610bd3565b610877565b6040516101de9190610b45565b60405180910390f35b60606002826040516101f99190610d3a565b908152602001604051809103902060009054906101000a900460ff16610254576040517f08c379a000000000000000000000000000000000000000000000000000000000815260040161024b90610d9d565b60405180910390fd5b6000826040516102649190610d3a565b9081526020016040518091039020805461027d90610dec565b80601f01602080910402602001604051908101604052809291908181526020018280546102a990610dec565b80156102f65780601f106102cb576101008083540402835291602001916102f6565b820191906000526020600020905b8154815290600101906020018083116102d957829003601f168201915b50505050509050919050565b60006002826040516103149190610d3a565b908152602001604051809103902060009054906101000a900460ff169050919050565b60606003805490508210610380576040517f08c379a000000000000000000000000000000000000000000000000000000000815260040161037790610e69565b60405180910390fd5b6003828154811061039457610393610e89565b5b9060005260206000200180546103a990610dec565b80601f01602080910402602001604051908101604052809291908181526020018280546103d590610dec565b80156104225780601f106103f757610100808354040283529160200191610422565b820191906000526020600020905b81548152906001019060200180831161040557829003601f168201915b50505050509050919050565b6000825111610472576040517f08c379a000000000000000000000000000000000000000000000000000000000815260040161046990610f04565b60405180910390fd5b60008151116104b6576040517f08c379a00000000000000000000000000000000000000000000000000000000081526004016104ad90610f70565b60405180910390fd5b6002826040516104c69190610d3a565b908152602001604051809103902060009054906101000a900460ff1615610522576040517f08c379a000000000000000000000000000000000000000000000000000000000815260040161051990610fdc565b60405180910390fd5b806000836040516105339190610d3a565b9081526020016040518091039020908161054d91906111a8565b503360018360405161055f9190610d3a565b908152602001604051809103902060006101000a81548173ffffffffffffffffffffffffffffffffffffffff021916908373ffffffffffffffffffffffffffffffffffffffff16021790555060016002836040516105bd9190610d3a565b908152602001604051809103902060006101000a81548160ff02191690831515021790555060038290806001815401808255809150506001900390600052602060002001600090919091909150908161061691906111a8565b503373ffffffffffffffffffffffffffffffffffffffff168260405161063c9190610d3a565b60405180910390207ffa7468fb48fb83622c2209222cf44e88523933fddb73d3b07ecf89400639b3ba834260405161067592919061127a565b60405180910390a35050565b6000600380549050905090565b60006002836040516106a09190610d3a565b908152602001604051809103902060009054906101000a900460ff166106fb576040517f08c379a00000000000000000000000000000000000000000000000000000000081526004016106f290610d9d565b60405180910390fd5b60008260405160200161070e9190610d3a565b604051602081830303815290604052805190602001206000856040516107349190610d3a565b9081526020016040518091039020604051602001610752919061132d565b60405160208183030381529060405280519060200120149050836040516107799190610d3a565b60405180910390207fdf8844e71fd10b8e7795ebf19c1650d566bab9b0b2f18a6373153f9aced9fc8982426040516107b2929190611344565b60405180910390a28091505092915050565b60006002826040516107d69190610d3a565b908152602001604051809103902060009054906101000a900460ff16610831576040517f08c379a000000000000000000000000000000000000000000000000000000000815260040161082890610d9d565b60405180910390fd5b6001826040516108419190610d3a565b908152602001604051809103902060009054906101000a900473ffffffffffffffffffffffffffffffffffffffff169050919050565b6003818154811061088757600080fd5b9060005260206000200160009150905080546108a290610dec565b80601f01602080910402602001604051908101604052809291908181526020018280546108ce90610dec565b801561091b5780601f106108f05761010080835404028352916020019161091b565b820191906000526020600020905b8154815290600101906020018083116108fe57829003601f168201915b505050505081565b6000604051905090565b600080fd5b600080fd5b600080fd5b600080fd5b6000601f19601f8301169050919050565b7f4e487b7100000000000000000000000000000000000000000000000000000000600052604160045260246000fd5b61098a82610941565b810181811067ffffffffffffffff821117156109a9576109a8610952565b5b80604052505050565b60006109bc610923565b90506109c88282610981565b919050565b600067ffffffffffffffff8211156109e8576109e7610952565b5b6109f182610941565b9050602081019050919050565b82818337600083830152505050565b6000610a20610a1b846109cd565b6109b2565b905082815260208101848484011115610a3c57610a3b61093c565b5b610a478482856109fe565b509392505050565b600082601f830112610a6457610a63610937565b5b8135610a74848260208601610a0d565b91505092915050565b600060208284031215610a9357610a9261092d565b5b600082013567ffffffffffffffff811115610ab157610ab0610932565b5b610abd84828501610a4f565b91505092915050565b600081519050919050565b600082825260208201905092915050565b60005b83811015610b00578082015181840152602081019050610ae5565b60008484015250505050565b6000610b1782610ac6565b610b218185610ad1565b9350610b31818560208601610ae2565b610b3a81610941565b840191505092915050565b60006020820190508181036000830152610b5f8184610b0c565b905092915050565b60008115159050919050565b610b7c81610b67565b82525050565b6000602082019050610b976000830184610b73565b92915050565b6000819050919050565b610bb081610b9d565b8114610bbb57600080fd5b50565b600081359050610bcd81610ba7565b92915050565b600060208284031215610be957610be861092d565b5b6000610bf784828501610bbe565b91505092915050565b60008060408385031215610c1757610c1661092d565b5b600083013567ffffffffffffffff811115610c3557610c34610932565b5b610c4185828601610a4f565b925050602083013567ffffffffffffffff811115610c6257610c61610932565b5b610c6e85828601610a4f565b9150509250929050565b610c8181610b9d565b82525050565b6000602082019050610c9c6000830184610c78565b92915050565b600073ffffffffffffffffffffffffffffffffffffffff82169050919050565b6000610ccd82610ca2565b9050919050565b610cdd81610cc2565b82525050565b6000602082019050610cf86000830184610cd4565b92915050565b600081905092915050565b6000610d1482610ac6565b610d1e8185610cfe565b9350610d2e818560208601610ae2565b80840191505092915050565b6000610d468284610d09565b915081905092915050565b7f4365727469666963617465206e6f7420666f756e640000000000000000000000600082015250565b6000610d87601583610ad1565b9150610d9282610d51565b602082019050919050565b60006020820190508181036000830152610db681610d7a565b9050919050565b7f4e487b7100000000000000000000000000000000000000000000000000000000600052602260045260246000fd5b60006002820490506001821680610e0457607f821691505b602082108103610e1757610e16610dbd565b5b50919050565b7f496e646578206f7574206f6620626f756e647300000000000000000000000000600082015250565b6000610e53601383610ad1565b9150610e5e82610e1d565b602082019050919050565b60006020820190508181036000830152610e8281610e46565b9050919050565b7f4e487b7100000000000000000000000000000000000000000000000000000000600052603260045260246000fd5b7f43657274696669636174652049442063616e6e6f7420626520656d7074790000600082015250565b6000610eee601e83610ad1565b9150610ef982610eb8565b602082019050919050565b60006020820190508181036000830152610f1d81610ee1565b9050919050565b7f436572746966696361746520686173682063616e6e6f7420626520656d707479600082015250565b6000610f5a602083610ad1565b9150610f6582610f24565b602082019050919050565b60006020820190508181036000830152610f8981610f4d565b9050919050565b7f436572746966696361746520616c726561647920697373756564000000000000600082015250565b6000610fc6601a83610ad1565b9150610fd182610f90565b602082019050919050565b60006020820190508181036000830152610ff581610fb9565b9050919050565b60008190508160005260206000209050919050565b60006020601f8301049050919050565b600082821b905092915050565b60006008830261105e7fffffffffffffffffffffffffffffffffffffffffffffffffffffffffffffffff82611021565b6110688683611021565b95508019841693508086168417925050509392505050565b6000819050919050565b60006110a56110a061109b84610b9d565b611080565b610b9d565b9050919050565b6000819050919050565b6110bf8361108a565b6110d36110cb826110ac565b84845461102e565b825550505050565b600090565b6110e86110db565b6110f38184846110b6565b505050565b5b818110156111175761110c6000826110e0565b6001810190506110f9565b5050565b601f82111561115c5761112d81610ffc565b61113684611011565b81016020851015611145578190505b61115961115185611011565b8301826110f8565b50505b505050565b600082821c905092915050565b600061117f60001984600802611161565b1980831691505092915050565b6000611198838361116e565b9150826002028217905092915050565b6111b182610ac6565b67ffffffffffffffff8111156111ca576111c9610952565b5b6111d48254610dec565b6111df82828561111b565b600060209050601f8311600181146112125760008415611200578287015190505b61120a858261118c565b865550611272565b601f19841661122086610ffc565b60005b8281101561124857848901518255600182019150602085019450602081019050611223565b868310156112655784890151611261601f89168261116e565b8355505b6001600288020188555050505b505050505050565b600060408201905081810360008301526112948185610b0c565b90506112a36020830184610c78565b9392505050565b600081546112b781610dec565b6112c18186610cfe565b945060018216600081146112dc57600181146112f157611324565b60ff1983168652811515820286019350611324565b6112fa85610ffc565b60005b8381101561131c578154818901526001820191506020810190506112fd565b838801955050505b50505092915050565b600061133982846112aa565b915081905092915050565b60006040820190506113596000830185610b73565b6113666020830184610c78565b939250505056fea2646970667358221220b5de0e7f48745839fe223ef3b1e268f4157c5ab69d3be7811fe93204dc7e4b7264736f6c63430008140033","opcodes":"PUSH1 0x80 PUSH1 0x40 MSTORE CALLVALUE DUP1 ISZERO PUSH2 0x10 JUMPI PUSH1 0x0 DUP1 REVERT JUMPDEST POP PUSH2 0x13A3 DUP1 PUSH2 0x20 PUSH1 0x0 CODECOPY PUSH1 0x0 RETURN INVALID PUSH1 0x80 PUSH1 0x40 MSTORE CALLVALUE DUP1 ISZERO PUSH2 0x10 JUMPI PUSH1 0x0 DUP1 REVERT JUMPDEST POP PUSH1 0x4 CALLDATASIZE LT PUSH2 0x88 JUMPI PUSH1 0x0 CALLDATALOAD PUSH1 0xE0 SHR DUP1 PUSH4 0x25BC3FEE GT PUSH2 0x5B JUMPI DUP1 PUSH4 0x25BC3FEE EQ PUSH2 0x139 JUMPI DUP1 PUSH4 0x2751F71B EQ PUSH2 0x157 JUMPI DUP1 PUSH4 0x440C4FAD EQ PUSH2 0x187 JUMPI DUP1 PUSH4 0x6BD5B694 EQ PUSH2 0x1B7 JUMPI PUSH2 0x88 JUMP JUMPDEST DUP1 PUSH4 0x499BA6F EQ PUSH2 0x8D JUMPI DUP1 PUSH4 0x655F037 EQ PUSH2 0xBD JUMPI DUP1 PUSH4 0xA0585F7 EQ PUSH2 0xED JUMPI DUP1 PUSH4 0x211BBE71 EQ PUSH2 0x11D JUMPI JUMPDEST PUSH1 0x0 DUP1 REVERT JUMPDEST PUSH2 0xA7 PUSH1 0x4 DUP1 CALLDATASIZE SUB DUP2 ADD SWAP1 PUSH2 0xA2 SWAP2 SWAP1 PUSH2 0xA7D JUMP JUMPDEST PUSH2 0x1E7 JUMP JUMPDEST PUSH1 0x40 MLOAD PUSH2 0xB4 SWAP2 SWAP1 PUSH2 0xB45 JUMP JUMPDEST PUSH1 0x40 MLOAD DUP1 SWAP2 SUB SWAP1 RETURN JUMPDEST PUSH2 0xD7 PUSH1 0x4 DUP1 CALLDATASIZE SUB DUP2 ADD SWAP1 PUSH2 0xD2 SWAP2 SWAP1 PUSH2 0xA7D JUMP JUMPDEST PUSH2 0x302 JUMP JUMPDEST PUSH1 0x40 MLOAD PUSH2 0xE4 SWAP2 SWAP1 PUSH2 0xB82 JUMP JUMPDEST PUSH1 0x40 MLOAD DUP1 SWAP2 SUB SWAP1 RETURN JUMPDEST PUSH2 0x107 PUSH1 0x4 DUP1 CALLDATASIZE SUB DUP2 ADD SWAP1 PUSH2 0x102 SWAP2 SWAP1 PUSH2 0xBD3 JUMP JUMPDEST PUSH2 0x337 JUMP JUMPDEST PUSH1 0x40 MLOAD PUSH2 0x114 SWAP2 SWAP1 PUSH2 0xB45 JUMP JUMPDEST PUSH1 0x40 MLOAD DUP1 SWAP2 SUB SWAP1 RETURN JUMPDEST PUSH2 0x137 PUSH1 0x4 DUP1 CALLDATASIZE SUB DUP2 ADD SWAP1 PUSH2 0x132 SWAP2 SWAP1 PUSH2 0xC00 JUMP JUMPDEST PUSH2 0x42E JUMP JUMPDEST STOP JUMPDEST PUSH2 0x141 PUSH2 0x681 JUMP JUMPDEST PUSH1 0x40 MLOAD PUSH2 0x14E SWAP2 SWAP1 PUSH2 0xC87 JUMP JUMPDEST PUSH1 0x40 MLOAD DUP1 SWAP2 SUB SWAP1 RETURN JUMPDEST PUSH2 0x171 PUSH1 0x4 DUP1 CALLDATASIZE SUB DUP2 ADD SWAP1 PUSH2 0x16C SWAP2 SWAP1 PUSH2 0xC00 JUMP JUMPDEST PUSH2 0x68E JUMP JUMPDEST PUSH1 0x40 MLOAD PUSH2 0x17E SWAP2 SWAP1 PUSH2 0xB82 JUMP JUMPDEST PUSH1 0x40 MLOAD DUP1 SWAP2 SUB SWAP1 RETURN JUMPDEST PUSH2 0x1A1 PUSH1 0x4 DUP1 CALLDATASIZE SUB DUP2 ADD SWAP1 PUSH2 0x19C SWAP2 SWAP1 PUSH2 0xA7D JUMP JUMPDEST PUSH2 0x7C4 JUMP JUMPDEST PUSH1 0x40 MLOAD PUSH2 0x1AE SWAP2 SWAP1 PUSH2 0xCE3 JUMP JUMPDEST PUSH1 0x40 MLOAD DUP1 SWAP2 SUB SWAP1 RETURN JUMPDEST PUSH2 0x1D1 PUSH1 0x4 DUP1 CALLDATASIZE SUB DUP2 ADD SWAP1 PUSH2 0x1CC SWAP2 SWAP1 PUSH2 0xBD3 JUMP JUMPDEST PUSH2 0x877 JUMP JUMPDEST PUSH1 0x40 MLOAD PUSH2 0x1DE SWAP2 SWAP1 PUSH2 0xB45 JUMP JUMPDEST PUSH1 0x40 MLOAD DUP1 SWAP2 SUB SWAP1 RETURN JUMPDEST PUSH1 0x60 PUSH1 0x2 DUP3 PUSH1 0x40 MLOAD PUSH2 0x1F9 SWAP2 SWAP1 PUSH2 0xD3A JUMP JUMPDEST SWAP1 DUP2 MSTORE PUSH1 0x20 ADD PUSH1 0x40 MLOAD DUP1 SWAP2 SUB SWAP1 KECCAK256 PUSH1 0x0 SWAP1 SLOAD SWAP1 PUSH2 0x100 EXP SWAP1 DIV PUSH1 0xFF AND PUSH2 0x254 JUMPI PUSH1 0x40 MLOAD PUSH32 0x8C379A000000000000000000000000000000000000000000000000000000000 DUP2 MSTORE PUSH1 0x4 ADD PUSH2 0x24B SWAP1 PUSH2 0xD9D JUMP JUMPDEST PUSH1 0x40 MLOAD DUP1 SWAP2 SUB SWAP1 REVERT JUMPDEST PUSH1 0x0 DUP3 PUSH1 0x40 MLOAD PUSH2 0x264 SWAP2 SWAP1 PUSH2 0xD3A JUMP JUMPDEST SWAP1 DUP2 MSTORE PUSH1 0x20 ADD PUSH1 0x40 MLOAD DUP1 SWAP2 SUB SWAP1 KECCAK256 DUP1 SLOAD PUSH2 0x27D SWAP1 PUSH2 0xDEC JUMP JUMPDEST DUP1 PUSH1 0x1F ADD PUSH1 0x20 DUP1 SWAP2 DIV MUL PUSH1 0x20 ADD PUSH1 0x40 MLOAD SWAP1 DUP2 ADD PUSH1 0x40 MSTORE DUP1 SWAP3 SWAP2 SWAP1 DUP2 DUP2 MSTORE PUSH1 0x20 ADD DUP3 DUP1 SLOAD PUSH2 0x2A9 SWAP1 PUSH2 0xDEC JUMP JUMPDEST DUP1 ISZERO PUSH2 0x2F6 JUMPI DUP1 PUSH1 0x1F LT PUSH2 0x2CB JUMPI PUSH2 0x100 DUP1 DUP4 SLOAD DIV MUL DUP4 MSTORE SWAP2 PUSH1 0x20 ADD SWAP2 PUSH2 0x2F6 JUMP JUMPDEST DUP3 ADD SWAP2 SWAP1 PUSH1 0x0 MSTORE PUSH1 0x20 PUSH1 0x0 KECCAK256 SWAP1 JUMPDEST DUP2 SLOAD DUP2 MSTORE SWAP1 PUSH1 0x1 ADD SWAP1 PUSH1 0x20 ADD DUP1 DUP4 GT PUSH2 0x2D9 JUMPI DUP3 SWAP1 SUB PUSH1 0x1F AND DUP3 ADD SWAP2 JUMPDEST POP POP POP POP POP SWAP1 POP SWAP2 SWAP1 POP JUMP JUMPDEST PUSH1 0x0 PUSH1 0x2 DUP3 PUSH1 0x40 MLOAD PUSH2 0x314 SWAP2 SWAP1 PUSH2 0xD3A JUMP JUMPDEST SWAP1 DUP2 MSTORE PUSH1 0x20 ADD PUSH1 0x40 MLOAD DUP1 SWAP2 SUB SWAP1 KECCAK256 PUSH1 0x0 SWAP1 SLOAD SWAP1 PUSH2 0x100 EXP SWAP1 DIV PUSH1 0xFF AND SWAP1 POP SWAP2 SWAP1 POP JUMP JUMPDEST PUSH1 0x60 PUSH1 0x3 DUP1 SLOAD SWAP1 POP DUP3 LT PUSH2 0x380 JUMPI PUSH1 0x40 MLOAD PUSH32 0x8C379A000000000000000000000000000000000000000000000000000000000 DUP2 MSTORE PUSH1 0x4 ADD PUSH2 0x377 SWAP1 PUSH2 0xE69 JUMP JUMPDEST PUSH1 0x40 MLOAD DUP1 SWAP2 SUB SWAP1 REVERT JUMPDEST PUSH1 0x3 DUP3 DUP2 SLOAD DUP2 LT PUSH2 0x394 JUMPI PUSH2 0x393 PUSH2 0xE89 JUMP JUMPDEST JUMPDEST SWAP1 PUSH1 0x0 MSTORE PUSH1 0x20 PUSH1 0x0 KECCAK256 ADD DUP1 SLOAD PUSH2 0x3A9 SWAP1 PUSH2 0xDEC JUMP JUMPDEST DUP1 PUSH1 0x1F ADD PUSH1 0x20 DUP1 SWAP2 DIV MUL PUSH1 0x20 ADD PUSH1 0x40 MLOAD SWAP1 DUP2 ADD PUSH1 0x40 MSTORE DUP1 SWAP3 SWAP2 SWAP1 DUP2 DUP2 MSTORE PUSH1 0x20 ADD DUP3 DUP1 SLOAD PUSH2 0x3D5 SWAP1 PUSH2 0xDEC JUMP JUMPDEST DUP1 ISZERO PUSH2 0x422 JUMPI DUP1 PUSH1 0x1F LT PUSH2 0x3F7 JUMPI PUSH2 0x100 DUP1 DUP4 SLOAD DIV MUL DUP4 MSTORE SWAP2 PUSH1 0x20 ADD SWAP2 PUSH2 0x422 JUMP JUMPDEST DUP3 ADD SWAP2 SWAP1 PUSH1 0x0 MSTORE PUSH1 0x20 PUSH1 0x0 KECCAK256 SWAP1 JUMPDEST DUP2 SLOAD DUP2 MSTORE SWAP1 PUSH1 0x1 ADD SWAP1 PUSH1 0x20 ADD DUP1 DUP4 GT PUSH2 0x405 JUMPI DUP3 SWAP1 SUB PUSH1 0x1F AND DUP3 ADD SWAP2 JUMPDEST POP POP POP POP POP SWAP1 POP SWAP2 SWAP1 POP JUMP JUMPDEST PUSH1 0x0 DUP3 MLOAD GT PUSH2 0x472 JUMPI PUSH1 0x40 MLOAD PUSH32 0x8C379A000000000000000000000000000000000000000000000000000000000 DUP2 MSTORE PUSH1 0x4 ADD PUSH2 0x469 SWAP1 PUSH2 0xF04 JUMP JUMPDEST PUSH1 0x40 MLOAD DUP1 SWAP2 SUB SWAP1 REVERT JUMPDEST PUSH1 0x0 DUP2 MLOAD GT PUSH2 0x4B6 JUMPI PUSH1 0x40 MLOAD PUSH32 0x8C379A000000000000000000000000000000000000000000000000000000000 DUP2 MSTORE PUSH1 0x4 ADD PUSH2 0x4AD SWAP1 PUSH2 0xF70 JUMP JUMPDEST PUSH1 0x40 MLOAD DUP1 SWAP2 SUB SWAP1 REVERT JUMPDEST PUSH1 0x2 DUP3 PUSH1 0x40 MLOAD PUSH2 0x4C6 SWAP2 SWAP1 PUSH2 0xD3A JUMP JUMPDEST SWAP1 DUP2 MSTORE PUSH1 0x20 ADD PUSH1 0x40 MLOAD DUP1 SWAP2 SUB SWAP1 KECCAK256 PUSH1 0x0 SWAP1 SLOAD SWAP1 PUSH2 0x100 EXP SWAP1 DIV PUSH1 0xFF AND ISZERO PUSH2 0x522 JUMPI PUSH1 0x40 MLOAD PUSH32 0x8C379A000000000000000000000000000000000000000000000000000000000 DUP2 MSTORE PUSH1 0x4 ADD PUSH2 0x519 SWAP1 PUSH2 0xFDC JUMP JUMPDEST PUSH1 0x40 MLOAD DUP1 SWAP2 SUB SWAP1 REVERT JUMPDEST DUP1 PUSH1 0x0 DUP4 PUSH1 0x40 MLOAD PUSH2 0x533 SWAP2 SWAP1 PUSH2 0xD3A JUMP JUMPDEST SWAP1 DUP2 MSTORE PUSH1 0x20 ADD PUSH1 0x40 MLOAD DUP1 SWAP2 SUB SWAP1 KECCAK256 SWAP1 DUP2 PUSH2 0x54D SWAP2 SWAP1 PUSH2 0x11A8 JUMP JUMPDEST POP CALLER PUSH1 0x1 DUP4 PUSH1 0x40 MLOAD PUSH2 0x55F SWAP2 SWAP1 PUSH2 0xD3A JUMP JUMPDEST SWAP1 DUP2 MSTORE PUSH1 0x20 ADD PUSH1 0x40 MLOAD DUP1 SWAP2 SUB SWAP1 KECCAK256 PUSH1 0x0 PUSH2 0x100 EXP DUP2 SLOAD DUP2 PUSH20 0xFFFFFFFFFFFFFFFFFFFFFFFFFFFFFFFFFFFFFFFF MUL NOT AND SWAP1 DUP4 PUSH20 0xFFFFFFFFFFFFFFFFFFFFFFFFFFFFFFFFFFFFFFFF AND MUL OR SWAP1 SSTORE POP PUSH1 0x1 PUSH1 0x2 DUP4 PUSH1 0x40 MLOAD PUSH2 0x5BD SWAP2 SWAP1 PUSH2 0xD3A JUMP JUMPDEST SWAP1 DUP2 MSTORE PUSH1 0x20 ADD PUSH1 0x40 MLOAD DUP1 SWAP2 SUB SWAP1 KECCAK256 PUSH1 0x0 PUSH2 0x100 EXP DUP2 SLOAD DUP2 PUSH1 0xFF MUL NOT AND SWAP1 DUP4 ISZERO ISZERO MUL OR SWAP1 SSTORE POP PUSH1 0x3 DUP3 SWAP1 DUP1 PUSH1 0x1 DUP2 SLOAD ADD DUP1 DUP3 SSTORE DUP1 SWAP2 POP POP PUSH1 0x1 SWAP1 SUB SWAP1 PUSH1 0x0 MSTORE PUSH1 0x20 PUSH1 0x0 KECCAK256 ADD PUSH1 0x0 SWAP1 SWAP2 SWAP1 SWAP2 SWAP1 SWAP2 POP SWAP1 DUP2 PUSH2 0x616 SWAP2 SWAP1 PUSH2 0x11A8 JUMP JUMPDEST POP CALLER PUSH20 0xFFFFFFFFFFFFFFFFFFFFFFFFFFFFFFFFFFFFFFFF AND DUP3 PUSH1 0x40 MLOAD PUSH2 0x63C SWAP2 SWAP1 PUSH2 0xD3A JUMP JUMPDEST PUSH1 0x40 MLOAD DUP1 SWAP2 SUB SWAP1 KECCAK256 PUSH32 0xFA7468FB48FB83622C2209222CF44E88523933FDDB73D3B07ECF89400639B3BA DUP4 TIMESTAMP PUSH1 0x40 MLOAD PUSH2 0x675 SWAP3 SWAP2 SWAP1 PUSH2 0x127A JUMP JUMPDEST PUSH1 0x40 MLOAD DUP1 SWAP2 SUB SWAP1 LOG3 POP POP JUMP JUMPDEST PUSH1 0x0 PUSH1 0x3 DUP1 SLOAD SWAP1 POP SWAP1 POP SWAP1 JUMP JUMPDEST PUSH1 0x0 PUSH1 0x2 DUP4 PUSH1 0x40 MLOAD PUSH2 0x6A0 SWAP2 SWAP1 PUSH2 0xD3A JUMP JUMPDEST SWAP1 DUP2 MSTORE PUSH1 0x20 ADD PUSH1 0x40 MLOAD DUP1 SWAP2 SUB SWAP1 KECCAK256 PUSH1 0x0 SWAP1 SLOAD SWAP1 PUSH2 0x100 EXP SWAP1 DIV PUSH1 0xFF AND PUSH2 0x6FB JUMPI PUSH1 0x40 MLOAD PUSH32 0x8C379A000000000000000000000000000000000000000000000000000000000 DUP2 MSTORE PUSH1 0x4 ADD PUSH2 0x6F2 SWAP1 PUSH2 0xD9D JUMP JUMPDEST PUSH1 0x40 MLOAD DUP1 SWAP2 SUB SWAP1 REVERT JUMPDEST PUSH1 0x0 DUP3 PUSH1 0x40 MLOAD PUSH1 0x20 ADD PUSH2 0x70E SWAP2 SWAP1 PUSH2 0xD3A JUMP JUMPDEST PUSH1 0x40 MLOAD PUSH1 0x20 DUP2 DUP4 SUB SUB DUP2 MSTORE SWAP1 PUSH1 0x40 MSTORE DUP1 MLOAD SWAP1 PUSH1 0x20 ADD KECCAK256 PUSH1 0x0 DUP6 PUSH1 0x40 MLOAD PUSH2 0x734 SWAP2 SWAP1 PUSH2 0xD3A JUMP JUMPDEST SWAP1 DUP2 MSTORE PUSH1 0x20 ADD PUSH1 0x40 MLOAD DUP1 SWAP2 SUB SWAP1 KECCAK256 PUSH1 0x40 MLOAD PUSH1 0x20 ADD PUSH2 0x752 SWAP2 SWAP1 PUSH2 0x132D JUMP JUMPDEST PUSH1 0x40 MLOAD PUSH1 0x20 DUP2 DUP4 SUB SUB DUP2 MSTORE SWAP1 PUSH1 0x40 MSTORE DUP1 MLOAD SWAP1 PUSH1 0x20 ADD KECCAK256 EQ SWAP1 POP DUP4 PUSH1 0x40 MLOAD PUSH2 0x779 SWAP2 SWAP1 PUSH2 0xD3A JUMP JUMPDEST PUSH1 0x40 MLOAD DUP1 SWAP2 SUB SWAP1 KECCAK256 PUSH32 0xDF8844E71FD10B8E7795EBF19C1650D566BAB9B0B2F18A6373153F9ACED9FC89 DUP3 TIMESTAMP PUSH1 0x40 MLOAD PUSH2 0x7B2 SWAP3 SWAP2 SWAP1 PUSH2 0x1344 JUMP JUMPDEST PUSH1 0x40 MLOAD DUP1 SWAP2 SUB SWAP1 LOG2 DUP1 SWAP2 POP POP SWAP3 SWAP2 POP POP JUMP JUMPDEST PUSH1 0x0 PUSH1 0x2 DUP3 PUSH1 0x40 MLOAD PUSH2 0x7D6 SWAP2 SWAP1 PUSH2 0xD3A JUMP JUMPDEST SWAP1 DUP2 MSTORE PUSH1 0x20 ADD PUSH1 0x40 MLOAD DUP1 SWAP2 SUB SWAP1 KECCAK256 PUSH1 0x0 SWAP1 SLOAD SWAP1 PUSH2 0x100 EXP SWAP1 DIV PUSH1 0xFF AND PUSH2 0x831 JUMPI PUSH1 0x40 MLOAD PUSH32 0x8C379A000000000000000000000000000000000000000000000000000000000 DUP2 MSTORE PUSH1 0x4 ADD PUSH2 0x828 SWAP1 PUSH2 0xD9D JUMP JUMPDEST PUSH1 0x40 MLOAD DUP1 SWAP2 SUB SWAP1 REVERT JUMPDEST PUSH1 0x1 DUP3 PUSH1 0x40 MLOAD PUSH2 0x841 SWAP2 SWAP1 PUSH2 0xD3A JUMP JUMPDEST SWAP1 DUP2 MSTORE PUSH1 0x20 ADD PUSH1 0x40 MLOAD DUP1 SWAP2 SUB SWAP1 KECCAK256 PUSH1 0x0 SWAP1 SLOAD SWAP1 PUSH2 0x100 EXP SWAP1 DIV PUSH20 0xFFFFFFFFFFFFFFFFFFFFFFFFFFFFFFFFFFFFFFFF AND SWAP1 POP SWAP2 SWAP1 POP JUMP JUMPDEST PUSH1 0x3 DUP2 DUP2 SLOAD DUP2 LT PUSH2 0x887 JUMPI PUSH1 0x0 DUP1 REVERT JUMPDEST SWAP1 PUSH1 0x0 MSTORE PUSH1 0x20 PUSH1 0x0 KECCAK256 ADD PUSH1 0x0 SWAP2 POP SWAP1 POP DUP1 SLOAD PUSH2 0x8A2 SWAP1 PUSH2 0xDEC JUMP JUMPDEST DUP1 PUSH1 0x1F ADD PUSH1 0x20 DUP1 SWAP2 DIV MUL PUSH1 0x20 ADD PUSH1 0x40 MLOAD SWAP1 DUP2 ADD PUSH1 0x40 MSTORE DUP1 SWAP3 SWAP2 SWAP1 DUP2 DUP2 MSTORE PUSH1 0x20 ADD DUP3 DUP1 SLOAD PUSH2 0x8CE SWAP1 PUSH2 0xDEC JUMP JUMPDEST DUP1 ISZERO PUSH2 0x91B JUMPI DUP1 PUSH1 0x1F LT PUSH2 0x8F0 JUMPI PUSH2 0x100 DUP1 DUP4 SLOAD DIV MUL DUP4 MSTORE SWAP2 PUSH1 0x20 ADD SWAP2 PUSH2 0x91B JUMP JUMPDEST DUP3 ADD SWAP2 SWAP1 PUSH1 0x0 MSTORE PUSH1 0x20 PUSH1 0x0 KECCAK256 SWAP1 JUMPDEST DUP2 SLOAD DUP2 MSTORE SWAP1 PUSH1 0x1 ADD SWAP1 PUSH1 0x20 ADD DUP1 DUP4 GT PUSH2 0x8FE JUMPI DUP3 SWAP1 SUB PUSH1 0x1F AND DUP3 ADD SWAP2 JUMPDEST POP POP POP POP POP DUP2 JUMP JUMPDEST PUSH1 0x0 PUSH1 0x40 MLOAD SWAP1 POP SWAP1 JUMP JUMPDEST PUSH1 0x0 DUP1 REVERT JUMPDEST PUSH1 0x0 DUP1 REVERT JUMPDEST PUSH1 0x0 DUP1 REVERT JUMPDEST PUSH1 0x0 DUP1 REVERT JUMPDEST PUSH1 0x0 PUSH1 0x1F NOT PUSH1 0x1F DUP4 ADD AND SWAP1 POP SWAP2 SWAP1 POP JUMP JUMPDEST PUSH32 0x4E487B7100000000000000000000000000000000000000000000000000000000 PUSH1 0x0 MSTORE PUSH1 0x41 PUSH1 0x4 MSTORE PUSH1 0x24 PUSH1 0x0 REVERT JUMPDEST PUSH2 0x98A DUP3 PUSH2 0x941 JUMP JUMPDEST DUP2 ADD DUP2 DUP2 LT PUSH8 0xFFFFFFFFFFFFFFFF DUP3 GT OR ISZERO PUSH2 0x9A9 JUMPI PUSH2 0x9A8 PUSH2 0x952 JUMP JUMPDEST JUMPDEST DUP1 PUSH1 0x40 MSTORE POP POP POP JUMP JUMPDEST PUSH1 0x0 PUSH2 0x9BC PUSH2 0x923 JUMP JUMPDEST SWAP1 POP PUSH2 0x9C8 DUP3 DUP3 PUSH2 0x981 JUMP JUMPDEST SWAP2 SWAP1 POP JUMP JUMPDEST PUSH1 0x0 PUSH8 0xFFFFFFFFFFFFFFFF DUP3 GT ISZERO PUSH2 0x9E8 JUMPI PUSH2 0x9E7 PUSH2 0x952 JUMP JUMPDEST JUMPDEST PUSH2 0x9F1 DUP3 PUSH2 0x941 JUMP JUMPDEST SWAP1 POP PUSH1 0x20 DUP2 ADD SWAP1 POP SWAP2 SWAP1 POP JUMP JUMPDEST DUP3 DUP2 DUP4 CALLDATACOPY PUSH1 0x0 DUP4 DUP4 ADD MSTORE POP POP POP JUMP JUMPDEST PUSH1 0x0 PUSH2 0xA20 PUSH2 0xA1B DUP5 PUSH2 0x9CD JUMP JUMPDEST PUSH2 0x9B2 JUMP JUMPDEST SWAP1 POP DUP3 DUP2 MSTORE PUSH1 0x20 DUP2 ADD DUP5 DUP5 DUP5 ADD GT ISZERO PUSH2 0xA3C JUMPI PUSH2 0xA3B PUSH2 0x93C JUMP JUMPDEST JUMPDEST PUSH2 0xA47 DUP5 DUP3 DUP6 PUSH2 0x9FE JUMP JUMPDEST POP SWAP4 SWAP3 POP POP POP JUMP JUMPDEST PUSH1 0x0 DUP3 PUSH1 0x1F DUP4 ADD SLT PUSH2 0xA64 JUMPI PUSH2 0xA63 PUSH2 0x937 JUMP JUMPDEST JUMPDEST DUP2 CALLDATALOAD PUSH2 0xA74 DUP5 DUP3 PUSH1 0x20 DUP7 ADD PUSH2 0xA0D JUMP JUMPDEST SWAP2 POP POP SWAP3 SWAP2 POP POP JUMP JUMPDEST PUSH1 0x0 PUSH1 0x20 DUP3 DUP5 SUB SLT ISZERO PUSH2 0xA93 JUMPI PUSH2 0xA92 PUSH2 0x92D JUMP JUMPDEST JUMPDEST PUSH1 0x0 DUP3 ADD CALLDATALOAD PUSH8 0xFFFFFFFFFFFFFFFF DUP2 GT ISZERO PUSH2 0xAB1 JUMPI PUSH2 0xAB0 PUSH2 0x932 JUMP JUMPDEST JUMPDEST PUSH2 0xABD DUP5 DUP3 DUP6 ADD PUSH2 0xA4F JUMP JUMPDEST SWAP2 POP POP SWAP3 SWAP2 POP POP JUMP JUMPDEST PUSH1 0x0 DUP2 MLOAD SWAP1 POP SWAP2 SWAP1 POP JUMP JUMPDEST PUSH1 0x0 DUP3 DUP3 MSTORE PUSH1 0x20 DUP3 ADD SWAP1 POP SWAP3 SWAP2 POP POP JUMP JUMPDEST PUSH1 0x0 JUMPDEST DUP4 DUP2 LT ISZERO PUSH2 0xB00 JUMPI DUP1 DUP3 ADD MLOAD DUP2 DUP5 ADD MSTORE PUSH1 0x20 DUP2 ADD SWAP1 POP PUSH2 0xAE5 JUMP JUMPDEST PUSH1 0x0 DUP5 DUP5 ADD MSTORE POP POP POP POP JUMP JUMPDEST PUSH1 0x0 PUSH2 0xB17 DUP3 PUSH2 0xAC6 JUMP JUMPDEST PUSH2 0xB21 DUP2 DUP6 PUSH2 0xAD1 JUMP JUMPDEST SWAP4 POP PUSH2 0xB31 DUP2 DUP6 PUSH1 0x20 DUP7 ADD PUSH2 0xAE2 JUMP JUMPDEST PUSH2 0xB3A DUP2 PUSH2 0x941 JUMP JUMPDEST DUP5 ADD SWAP2 POP POP SWAP3 SWAP2 POP POP JUMP JUMPDEST PUSH1 0x0 PUSH1 0x20 DUP3 ADD SWAP1 POP DUP2 DUP2 SUB PUSH1 0x0 DUP4 ADD MSTORE PUSH2 0xB5F DUP2 DUP5 PUSH2 0xB0C JUMP JUMPDEST SWAP1 POP SWAP3 SWAP2 POP POP JUMP JUMPDEST PUSH1 0x0 DUP2 ISZERO ISZERO SWAP1 POP SWAP2 SWAP1 POP JUMP JUMPDEST PUSH2 0xB7C DUP2 PUSH2 0xB67 JUMP JUMPDEST DUP3 MSTORE POP POP JUMP JUMPDEST PUSH1 0x0 PUSH1 0x20 DUP3 ADD SWAP1 POP PUSH2 0xB97 PUSH1 0x0 DUP4 ADD DUP5 PUSH2 0xB73 JUMP JUMPDEST SWAP3 SWAP2 POP POP JUMP JUMPDEST PUSH1 0x0 DUP2 SWAP1 POP SWAP2 SWAP1 POP JUMP JUMPDEST PUSH2 0xBB0 DUP2 PUSH2 0xB9D JUMP JUMPDEST DUP2 EQ PUSH2 0xBBB JUMPI PUSH1 0x0 DUP1 REVERT JUMPDEST POP JUMP JUMPDEST PUSH1 0x0 DUP2 CALLDATALOAD SWAP1 POP PUSH2 0xBCD DUP2 PUSH2 0xBA7 JUMP JUMPDEST SWAP3 SWAP2 POP POP JUMP JUMPDEST PUSH1 0x0 PUSH1 0x20 DUP3 DUP5 SUB SLT ISZERO PUSH2 0xBE9 JUMPI PUSH2 0xBE8 PUSH2 0x92D JUMP JUMPDEST JUMPDEST PUSH1 0x0 PUSH2 0xBF7 DUP5 DUP3 DUP6 ADD PUSH2 0xBBE JUMP JUMPDEST SWAP2 POP POP SWAP3 SWAP2 POP POP JUMP JUMPDEST PUSH1 0x0 DUP1 PUSH1 0x40 DUP4 DUP6 SUB SLT ISZERO PUSH2 0xC17 JUMPI PUSH2 0xC16 PUSH2 0x92D JUMP JUMPDEST JUMPDEST PUSH1 0x0 DUP4 ADD CALLDATALOAD PUSH8 0xFFFFFFFFFFFFFFFF DUP2 GT ISZERO PUSH2 0xC35 JUMPI PUSH2 0xC34 PUSH2 0x932 JUMP JUMPDEST JUMPDEST PUSH2 0xC41 DUP6 DUP3 DUP7 ADD PUSH2 0xA4F JUMP JUMPDEST SWAP3 POP POP PUSH1 0x20 DUP4 ADD CALLDATALOAD PUSH8 0xFFFFFFFFFFFFFFFF DUP2 GT ISZERO PUSH2 0xC62 JUMPI PUSH2 0xC61 PUSH2 0x932 JUMP JUMPDEST JUMPDEST PUSH2 0xC6E DUP6 DUP3 DUP7 ADD PUSH2 0xA4F JUMP JUMPDEST SWAP2 POP POP SWAP3 POP SWAP3 SWAP1 POP JUMP JUMPDEST PUSH2 0xC81 DUP2 PUSH2 0xB9D JUMP JUMPDEST DUP3 MSTORE POP POP JUMP JUMPDEST PUSH1 0x0 PUSH1 0x20 DUP3 ADD SWAP1 POP PUSH2 0xC9C PUSH1 0x0 DUP4 ADD DUP5 PUSH2 0xC78 JUMP JUMPDEST SWAP3 SWAP2 POP POP JUMP JUMPDEST PUSH1 0x0 PUSH20 0xFFFFFFFFFFFFFFFFFFFFFFFFFFFFFFFFFFFFFFFF DUP3 AND SWAP1 POP SWAP2 SWAP1 POP JUMP JUMPDEST PUSH1 0x0 PUSH2 0xCCD DUP3 PUSH2 0xCA2 JUMP JUMPDEST SWAP1 POP SWAP2 SWAP1 POP JUMP JUMPDEST PUSH2 0xCDD DUP2 PUSH2 0xCC2 JUMP JUMPDEST DUP3 MSTORE POP POP JUMP JUMPDEST PUSH1 0x0 PUSH1 0x20 DUP3 ADD SWAP1 POP PUSH2 0xCF8 PUSH1 0x0 DUP4 ADD DUP5 PUSH2 0xCD4 JUMP JUMPDEST SWAP3 SWAP2 POP POP JUMP JUMPDEST PUSH1 0x0 DUP2 SWAP1 POP SWAP3 SWAP2 POP POP JUMP JUMPDEST PUSH1 0x0 PUSH2 0xD14 DUP3 PUSH2 0xAC6 JUMP JUMPDEST PUSH2 0xD1E DUP2 DUP6 PUSH2 0xCFE JUMP JUMPDEST SWAP4 POP PUSH2 0xD2E DUP2 DUP6 PUSH1 0x20 DUP7 ADD PUSH2 0xAE2 JUMP JUMPDEST DUP1 DUP5 ADD SWAP2 POP POP SWAP3 SWAP2 POP POP JUMP JUMPDEST PUSH1 0x0 PUSH2 0xD46 DUP3 DUP5 PUSH2 0xD09 JUMP JUMPDEST SWAP2 POP DUP2 SWAP1 POP SWAP3 SWAP2 POP POP JUMP JUMPDEST PUSH32 0x4365727469666963617465206E6F7420666F756E640000000000000000000000 PUSH1 0x0 DUP3 ADD MSTORE POP JUMP JUMPDEST PUSH1 0x0 PUSH2 0xD87 PUSH1 0x15 DUP4 PUSH2 0xAD1 JUMP JUMPDEST SWAP2 POP PUSH2 0xD92 DUP3 PUSH2 0xD51 JUMP JUMPDEST PUSH1 0x20 DUP3 ADD SWAP1 POP SWAP2 SWAP1 POP JUMP JUMPDEST PUSH1 0x0 PUSH1 0x20 DUP3 ADD SWAP1 POP DUP2 DUP2 SUB PUSH1 0x0 DUP4 ADD MSTORE PUSH2 0xDB6 DUP2 PUSH2 0xD7A JUMP JUMPDEST SWAP1 POP SWAP2 SWAP1 POP JUMP JUMPDEST PUSH32 0x4E487B7100000000000000000000000000000000000000000000000000000000 PUSH1 0x0 MSTORE PUSH1 0x22 PUSH1 0x4 MSTORE PUSH1 0x24 PUSH1 0x0 REVERT JUMPDEST PUSH1 0x0 PUSH1 0x2 DUP3 DIV SWAP1 POP PUSH1 0x1 DUP3 AND DUP1 PUSH2 0xE04 JUMPI PUSH1 0x7F DUP3 AND SWAP2 POP JUMPDEST PUSH1 0x20 DUP3 LT DUP2 SUB PUSH2 0xE17 JUMPI PUSH2 0xE16 PUSH2 0xDBD JUMP JUMPDEST JUMPDEST POP SWAP2 SWAP1 POP JUMP JUMPDEST PUSH32 0x496E646578206F7574206F6620626F756E647300000000000000000000000000 PUSH1 0x0 DUP3 ADD MSTORE POP JUMP JUMPDEST PUSH1 0x0 PUSH2 0xE53 PUSH1 0x13 DUP4 PUSH2 0xAD1 JUMP JUMPDEST SWAP2 POP PUSH2 0xE5E DUP3 PUSH2 0xE1D JUMP JUMPDEST PUSH1 0x20 DUP3 ADD SWAP1 POP SWAP2 SWAP1 POP JUMP JUMPDEST PUSH1 0x0 PUSH1 0x20 DUP3 ADD SWAP1 POP DUP2 DUP2 SUB PUSH1 0x0 DUP4 ADD MSTORE PUSH2 0xE82 DUP2 PUSH2 0xE46 JUMP JUMPDEST SWAP1 POP SWAP2 SWAP1 POP JUMP JUMPDEST PUSH32 0x4E487B7100000000000000000000000000000000000000000000000000000000 PUSH1 0x0 MSTORE PUSH1 0x32 PUSH1 0x4 MSTORE PUSH1 0x24 PUSH1 0x0 REVERT JUMPDEST PUSH32 0x43657274696669636174652049442063616E6E6F7420626520656D7074790000 PUSH1 0x0 DUP3 ADD MSTORE POP JUMP JUMPDEST PUSH1 0x0 PUSH2 0xEEE PUSH1 0x1E DUP4 PUSH2 0xAD1 JUMP JUMPDEST SWAP2 POP PUSH2 0xEF9 DUP3 PUSH2 0xEB8 JUMP JUMPDEST PUSH1 0x20 DUP3 ADD SWAP1 POP SWAP2 SWAP1 POP JUMP JUMPDEST PUSH1 0x0 PUSH1 0x20 DUP3 ADD SWAP1 POP DUP2 DUP2 SUB PUSH1 0x0 DUP4 ADD MSTORE PUSH2 0xF1D DUP2 PUSH2 0xEE1 JUMP JUMPDEST SWAP1 POP SWAP2 SWAP1 POP JUMP JUMPDEST PUSH32 0x436572746966696361746520686173682063616E6E6F7420626520656D707479 PUSH1 0x0 DUP3 ADD MSTORE POP JUMP JUMPDEST PUSH1 0x0 PUSH2 0xF5A PUSH1 0x20 DUP4 PUSH2 0xAD1 JUMP JUMPDEST SWAP2 POP PUSH2 0xF65 DUP3 PUSH2 0xF24 JUMP JUMPDEST PUSH1 0x20 DUP3 ADD SWAP1 POP SWAP2 SWAP1 POP JUMP JUMPDEST PUSH1 0x0 PUSH1 0x20 DUP3 ADD SWAP1 POP DUP2 DUP2 SUB PUSH1 0x0 DUP4 ADD MSTORE PUSH2 0xF89 DUP2 PUSH2 0xF4D JUMP JUMPDEST SWAP1 POP SWAP2 SWAP1 POP JUMP JUMPDEST PUSH32 0x436572746966696361746520616C726561647920697373756564000000000000 PUSH1 0x0 DUP3 ADD MSTORE POP JUMP JUMPDEST PUSH1 0x0 PUSH2 0xFC6 PUSH1 0x1A DUP4 PUSH2 0xAD1 JUMP JUMPDEST SWAP2 POP PUSH2 0xFD1 DUP3 PUSH2 0xF90 JUMP JUMPDEST PUSH1 0x20 DUP3 ADD SWAP1 POP SWAP2 SWAP1 POP JUMP JUMPDEST PUSH1 0x0 PUSH1 0x20 DUP3 ADD SWAP1 POP DUP2 DUP2 SUB PUSH1 0x0 DUP4 ADD MSTORE PUSH2 0xFF5 DUP2 PUSH2 0xFB9 JUMP JUMPDEST SWAP1 POP SWAP2 SWAP1 POP JUMP JUMPDEST PUSH1 0x0 DUP2 SWAP1 POP DUP2 PUSH1 0x0 MSTORE PUSH1 0x20 PUSH1 0x0 KECCAK256 SWAP1 POP SWAP2 SWAP1 POP JUMP JUMPDEST PUSH1 0x0 PUSH1 0x20 PUSH1 0x1F DUP4 ADD DIV SWAP1 POP SWAP2 SWAP1 POP JUMP JUMPDEST PUSH1 0x0 DUP3 DUP3 SHL SWAP1 POP SWAP3 SWAP2 POP POP JUMP JUMPDEST PUSH1 0x0 PUSH1 0x8 DUP4 MUL PUSH2 0x105E PUSH32 0xFFFFFFFFFFFFFFFFFFFFFFFFFFFFFFFFFFFFFFFFFFFFFFFFFFFFFFFFFFFFFFFF DUP3 PUSH2 0x1021 JUMP JUMPDEST PUSH2 0x1068 DUP7 DUP4 PUSH2 0x1021 JUMP JUMPDEST SWAP6 POP DUP1 NOT DUP5 AND SWAP4 POP DUP1 DUP7 AND DUP5 OR SWAP3 POP POP POP SWAP4 SWAP3 POP POP POP JUMP JUMPDEST PUSH1 0x0 DUP2 SWAP1 POP SWAP2 SWAP1 POP JUMP JUMPDEST PUSH1 0x0 PUSH2 0x10A5 PUSH2 0x10A0 PUSH2 0x109B DUP5 PUSH2 0xB9D JUMP JUMPDEST PUSH2 0x1080 JUMP JUMPDEST PUSH2 0xB9D JUMP JUMPDEST SWAP1 POP SWAP2 SWAP1 POP JUMP JUMPDEST PUSH1 0x0 DUP2 SWAP1 POP SWAP2 SWAP1 POP JUMP JUMPDEST PUSH2 0x10BF DUP4 PUSH2 0x108A JUMP JUMPDEST PUSH2 0x10D3 PUSH2 0x10CB DUP3 PUSH2 0x10AC JUMP JUMPDEST DUP5 DUP5 SLOAD PUSH2 0x102E JUMP JUMPDEST DUP3 SSTORE POP POP POP POP JUMP JUMPDEST PUSH1 0x0 SWAP1 JUMP JUMPDEST PUSH2 0x10E8 PUSH2 0x10DB JUMP JUMPDEST PUSH2 0x10F3 DUP2 DUP5 DUP5 PUSH2 0x10B6 JUMP JUMPDEST POP POP POP JUMP JUMPDEST JUMPDEST DUP2 DUP2 LT ISZERO PUSH2 0x1117 JUMPI PUSH2 0x110C PUSH1 0x0 DUP3 PUSH2 0x10E0 JUMP JUMPDEST PUSH1 0x1 DUP2 ADD SWAP1 POP PUSH2 0x10F9 JUMP JUMPDEST POP POP JUMP JUMPDEST PUSH1 0x1F DUP3 GT ISZERO PUSH2 0x115C JUMPI PUSH2 0x112D DUP2 PUSH2 0xFFC JUMP JUMPDEST PUSH2 0x1136 DUP5 PUSH2 0x1011 JUMP JUMPDEST DUP2 ADD PUSH1 0x20 DUP6 LT ISZERO PUSH2 0x1145 JUMPI DUP2 SWAP1 POP JUMPDEST PUSH2 0x1159 PUSH2 0x1151 DUP6 PUSH2 0x1011 JUMP JUMPDEST DUP4 ADD DUP3 PUSH2 0x10F8 JUMP JUMPDEST POP POP JUMPDEST POP POP POP JUMP JUMPDEST PUSH1 0x0 DUP3 DUP3 SHR SWAP1 POP SWAP3 SWAP2 POP POP JUMP JUMPDEST PUSH1 0x0 PUSH2 0x117F PUSH1 0x0 NOT DUP5 PUSH1 0x8 MUL PUSH2 0x1161 JUMP JUMPDEST NOT DUP1 DUP4 AND SWAP2 POP POP SWAP3 SWAP2 POP POP JUMP JUMPDEST PUSH1 0x0 PUSH2 0x1198 DUP4 DUP4 PUSH2 0x116E JUMP JUMPDEST SWAP2 POP DUP3 PUSH1 0x2 MUL DUP3 OR SWAP1 POP SWAP3 SWAP2 POP POP JUMP JUMPDEST PUSH2 0x11B1 DUP3 PUSH2 0xAC6 JUMP JUMPDEST PUSH8 0xFFFFFFFFFFFFFFFF DUP2 GT ISZERO PUSH2 0x11CA JUMPI PUSH2 0x11C9 PUSH2 0x952 JUMP JUMPDEST JUMPDEST PUSH2 0x11D4 DUP3 SLOAD PUSH2 0xDEC JUMP JUMPDEST PUSH2 0x11DF DUP3 DUP3 DUP6 PUSH2 0x111B JUMP JUMPDEST PUSH1 0x0 PUSH1 0x20 SWAP1 POP PUSH1 0x1F DUP4 GT PUSH1 0x1 DUP2 EQ PUSH2 0x1212 JUMPI PUSH1 0x0 DUP5 ISZERO PUSH2 0x1200 JUMPI DUP3 DUP8 ADD MLOAD SWAP1 POP JUMPDEST PUSH2 0x120A DUP6 DUP3 PUSH2 0x118C JUMP JUMPDEST DUP7 SSTORE POP PUSH2 0x1272 JUMP JUMPDEST PUSH1 0x1F NOT DUP5 AND PUSH2 0x1220 DUP7 PUSH2 0xFFC JUMP JUMPDEST PUSH1 0x0 JUMPDEST DUP3 DUP2 LT ISZERO PUSH2 0x1248 JUMPI DUP5 DUP10 ADD MLOAD DUP3 SSTORE PUSH1 0x1 DUP3 ADD SWAP2 POP PUSH1 0x20 DUP6 ADD SWAP5 POP PUSH1 0x20 DUP2 ADD SWAP1 POP PUSH2 0x1223 JUMP JUMPDEST DUP7 DUP4 LT ISZERO PUSH2 0x1265 JUMPI DUP5 DUP10 ADD MLOAD PUSH2 0x1261 PUSH1 0x1F DUP10 AND DUP3 PUSH2 0x116E JUMP JUMPDEST DUP4 SSTORE POP JUMPDEST PUSH1 0x1 PUSH1 0x2 DUP9 MUL ADD DUP9 SSTORE POP POP POP JUMPDEST POP POP POP POP POP POP JUMP JUMPDEST PUSH1 0x0 PUSH1 0x40 DUP3 ADD SWAP1 POP DUP2 DUP2 SUB PUSH1 0x0 DUP4 ADD MSTORE PUSH2 0x1294 DUP2 DUP6 PUSH2 0xB0C JUMP JUMPDEST SWAP1 POP PUSH2 0x12A3 PUSH1 0x20 DUP4 ADD DUP5 PUSH2 0xC78 JUMP JUMPDEST SWAP4 SWAP3 POP POP POP JUMP JUMPDEST PUSH1 0x0 DUP2 SLOAD PUSH2 0x12B7 DUP2 PUSH2 0xDEC JUMP JUMPDEST PUSH2 0x12C1 DUP2 DUP7 PUSH2 0xCFE JUMP JUMPDEST SWAP5 POP PUSH1 0x1 DUP3 AND PUSH1 0x0 DUP2 EQ PUSH2 0x12DC JUMPI PUSH1 0x1 DUP2 EQ PUSH2 0x12F1 JUMPI PUSH2 0x1324 JUMP JUMPDEST PUSH1 0xFF NOT DUP4 AND DUP7 MSTORE DUP2 ISZERO ISZERO DUP3 MUL DUP7 ADD SWAP4 POP PUSH2 0x1324 JUMP JUMPDEST PUSH2 0x12FA DUP6 PUSH2 0xFFC JUMP JUMPDEST PUSH1 0x0 JUMPDEST DUP4 DUP2 LT ISZERO PUSH2 0x131C JUMPI DUP2 SLOAD DUP2 DUP10 ADD MSTORE PUSH1 0x1 DUP3 ADD SWAP2 POP PUSH1 0x20 DUP2 ADD SWAP1 POP PUSH2 0x12FD JUMP JUMPDEST DUP4 DUP9 ADD SWAP6 POP POP POP JUMPDEST POP POP POP SWAP3 SWAP2 POP POP JUMP JUMPDEST PUSH1 0x0 PUSH2 0x1339 DUP3 DUP5 PUSH2 0x12AA JUMP JUMPDEST SWAP2 POP DUP2 SWAP1 POP SWAP3 SWAP2 POP POP JUMP JUMPDEST PUSH1 0x0 PUSH1 0x40 DUP3 ADD SWAP1 POP PUSH2 0x1359 PUSH1 0x0 DUP4 ADD DUP6 PUSH2 0xB73 JUMP JUMPDEST PUSH2 0x1366 PUSH1 0x20 DUP4 ADD DUP5 PUSH2 0xC78 JUMP JUMPDEST SWAP4 SWAP3 POP POP POP JUMP INVALID LOG2 PUSH5 0x6970667358 0x22 SLT KECCAK256 0xB5 0xDE 0xE PUSH32 0x48745839FE223EF3B1E268F4157C5AB69D3BE7811FE93204DC7E4B7264736F6C PUSH4 0x43000814 STOP CALLER "},"methodIdentifiers":{"certificateExists(string)":"0655f037","getCertificateAtIndex(uint256)":"0a0585f7","getCertificateHash(string)":"0499ba6f","getCertificateIssuer(string)":"440c4fad","getTotalIssuedCertificates()":"25bc3fee","issueCertificate(string,string)":"211bbe71","issuedCertificates(uint256)":"6bd5b694","verifyCertificate(string,string)":"2751f71b"}}}}}