{
  "_format": "hh-sol-artifact-1",
  "contractName": "CertificateRegistry",
  "sourceName": "contracts/CertificateRegistry.sol",
  "abi": [
    {
      "inputs": [],
      "stateMutability": "nonpayable",
      "type": "constructor"
    },
    {
      "anonymous": false,
      "inputs": [
        {
          "indexed": true,
          "internalType": "string",
          "name": "certId",
          "type": "string"
        },
        {
          "indexed": false,
          "internalType": "uint256",
          "name": "timestamp",
          "type": "uint256"
        }
      ],
      "name": "CertificateRevoked",
      "type": "event"
    },
    {
      "anonymous": false,
      "inputs": [
        {
          "indexed": true,
          "internalType": "string",
          "name": "certId",
          "type": "string"
        },
        {
          "indexed": false,
          "internalType": "string",
          "name": "hash",
          "type": "string"
        },
        {
          "indexed": false,
          "internalType": "uint256",
          "name": "timestamp",
          "type": "uint256"
        }
      ],
      "name": "CertificateStored",
      "type": "event"
    },
    {
      "inputs": [
        {
          "internalType": "string",
          "name": "certId",
          "type": "string"
        }
      ],
      "name": "certificateRegistered",
      "outputs": [
        {
          "internalType": "bool",
          "name": "",
          "type": "bool"
        }
      ],
      "stateMutability": "view",
      "type": "function"
    },
    {
      "inputs": [
        {
          "internalType": "string",
          "name": "certId",
          "type": "string"
        }
      ],
      "name": "getCertificateHash",
      "outputs": [
        {
          "internalType": "string",
          "name": "",
          "type": "string"
        }
      ],
      "stateMutability": "view",
      "type": "function"
    },
    {
      "inputs": [],
      "name": "owner",
      "outputs": [
        {
          "internalType": "address",
          "name": "",
          "type": "address"
        }
      ],
      "stateMutability": "view",
      "type": "function"
    },
    {
      "inputs": [
        {
          "internalType": "string",
          "name": "certId",
          "type": "string"
        }
      ],
      "name": "revokeCertificate",
      "outputs": [],
      "stateMutability": "nonpayable",
      "type": "function"
    },
    {
      "inputs": [
        {
          "internalType": "string",
          "name": "certId",
          "type": "string"
        },
        {
          "internalType": "string",
          "name": "sha256Hash",
          "type": "string"
        }
      ],
      "name": "storeCertificate",
      "outputs": [],
      "stateMutability": "nonpayable",
      "type": "function"
    },
    {
      "inputs": [
        {
          "internalType": "string",
          "name": "certId",
          "type": "string"
        },
        {
          "internalType": "string",
          "name": "sha256Hash",
          "type": "string"
        }
      ],
      "name": "updateCertificateHash",
      "outputs": [],
      "stateMutability": "nonpayable",
      "type": "function"
    },
    {
      "inputs": [
        {
          "internalType": "string",
          "name": "certId",
          "type": "string"
        },
        {
          "internalType": "string",
          "name": "sha256Hash",
          "type": "string"
        }
      ],
      "name": "verifyCertificate",
      "outputs": [
        {
          "internalType": "bool",
          "name": "",
          "type": "bool"
        }
      ],
      "stateMutability": "view",
      "type": "function"
    }
  ],
  "bytecode": "0x608060405234801561001057600080fd5b5033600260006101000a81548173ffffffffffffffffffffffffffffffffffffffff021916908373ffffffffffffffffffffffffffffffffffffffff160217905550611174806100616000396000f3fe608060405234801561001057600080fd5b506004361061007d5760003560e01c8063678d36441161005b578063678d3644146100fe5780638da5cb5b1461011a578063f986f93114610138578063fa66ade0146101545761007d565b80630499ba6f14610082578063142e1542146100b25780632751f71b146100ce575b600080fd5b61009c600480360381019061009791906109b1565b610184565b6040516100a99190610a79565b60405180910390f35b6100cc60048036038101906100c791906109b1565b61029f565b005b6100e860048036038101906100e39190610a9b565b610421565b6040516100f59190610b2e565b60405180910390f35b61011860048036038101906101139190610a9b565b6104d1565b005b610122610682565b60405161012f9190610b8a565b60405180910390f35b610152600480360381019061014d9190610a9b565b6106a8565b005b61016e600480360381019061016991906109b1565b610822565b60405161017b9190610b2e565b60405180910390f35b60606001826040516101969190610be1565b908152602001604051809103902060009054906101000a900460ff166101f1576040517f08c379a00000000000000000000000000000000000000000000000000000000081526004016101e890610c44565b60405180910390fd5b6000826040516102019190610be1565b9081526020016040518091039020805461021a90610c93565b80601f016020809104026020016040519081016040528092919081815260200182805461024690610c93565b80156102935780601f1061026857610100808354040283529160200191610293565b820191906000526020600020905b81548152906001019060200180831161027657829003601f168201915b50505050509050919050565b600260009054906101000a900473ffffffffffffffffffffffffffffffffffffffff1673ffffffffffffffffffffffffffffffffffffffff163373ffffffffffffffffffffffffffffffffffffffff161461032f576040517f08c379a000000000000000000000000000000000000000000000000000000000815260040161032690610d36565b60405180910390fd5b60018160405161033f9190610be1565b908152602001604051809103902060009054906101000a900460ff1661039a576040517f08c379a000000000000000000000000000000000000000000000000000000000815260040161039190610c44565b60405180910390fd5b60006001826040516103ac9190610be1565b908152602001604051809103902060006101000a81548160ff021916908315150217905550806040516103df9190610be1565b60405180910390207f57bf3aad622f3cf905e8c86d1e40e1de99f3ea3a1c14decf97a8671c24fbe557426040516104169190610d6f565b60405180910390a250565b60006001836040516104339190610be1565b908152602001604051809103902060009054906101000a900460ff1661045c57600090506104cb565b8160405160200161046d9190610be1565b604051602081830303815290604052805190602001206000846040516104939190610be1565b90815260200160405180910390206040516020016104b19190610e22565b604051602081830303815290604052805190602001201490505b92915050565b600260009054906101000a900473ffffffffffffffffffffffffffffffffffffffff1673ffffffffffffffffffffffffffffffffffffffff163373ffffffffffffffffffffffffffffffffffffffff1614610561576040517f08c379a000000000000000000000000000000000000000000000000000000000815260040161055890610d36565b60405180910390fd5b6001826040516105719190610be1565b908152602001604051809103902060009054906101000a900460ff16156105cd576040517f08c379a00000000000000000000000000000000000000000000000000000000081526004016105c490610e85565b60405180910390fd5b806000836040516105de9190610be1565b908152602001604051809103902090816105f8919061103c565b506001808360405161060a9190610be1565b908152602001604051809103902060006101000a81548160ff0219169083151502179055508160405161063d9190610be1565b60405180910390207fe7ca35231b44b0fd505c2bd6f738db12c1e2c45e89c3e89c88f5c225459d51fb824260405161067692919061110e565b60405180910390a25050565b600260009054906101000a900473ffffffffffffffffffffffffffffffffffffffff1681565b600260009054906101000a900473ffffffffffffffffffffffffffffffffffffffff1673ffffffffffffffffffffffffffffffffffffffff163373ffffffffffffffffffffffffffffffffffffffff1614610738576040517f08c379a000000000000000000000000000000000000000000000000000000000815260040161072f90610d36565b60405180910390fd5b6001826040516107489190610be1565b908152602001604051809103902060009054906101000a900460ff166107a3576040517f08c379a000000000000000000000000000000000000000000000000000000000815260040161079a90610c44565b60405180910390fd5b806000836040516107b49190610be1565b908152602001604051809103902090816107ce919061103c565b50816040516107dd9190610be1565b60405180910390207fe7ca35231b44b0fd505c2bd6f738db12c1e2c45e89c3e89c88f5c225459d51fb824260405161081692919061110e565b60405180910390a25050565b60006001826040516108349190610be1565b908152602001604051809103902060009054906101000a900460ff169050919050565b6000604051905090565b600080fd5b600080fd5b600080fd5b600080fd5b6000601f19601f8301169050919050565b7f4e487b7100000000000000000000000000000000000000000000000000000000600052604160045260246000fd5b6108be82610875565b810181811067ffffffffffffffff821117156108dd576108dc610886565b5b80604052505050565b60006108f0610857565b90506108fc82826108b5565b919050565b600067ffffffffffffffff82111561091c5761091b610886565b5b61092582610875565b9050602081019050919050565b82818337600083830152505050565b600061095461094f84610901565b6108e6565b9050828152602081018484840111156109705761096f610870565b5b61097b848285610932565b509392505050565b600082601f8301126109985761099761086b565b5b81356109a8848260208601610941565b91505092915050565b6000602082840312156109c7576109c6610861565b5b600082013567ffffffffffffffff8111156109e5576109e4610866565b5b6109f184828501610983565b91505092915050565b600081519050919050565b600082825260208201905092915050565b60005b83811015610a34578082015181840152602081019050610a19565b60008484015250505050565b6000610a4b826109fa565b610a558185610a05565b9350610a65818560208601610a16565b610a6e81610875565b840191505092915050565b60006020820190508181036000830152610a938184610a40565b905092915050565b60008060408385031215610ab257610ab1610861565b5b600083013567ffffffffffffffff811115610ad057610acf610866565b5b610adc85828601610983565b925050602083013567ffffffffffffffff811115610afd57610afc610866565b5b610b0985828601610983565b9150509250929050565b60008115159050919050565b610b2881610b13565b82525050565b6000602082019050610b436000830184610b1f565b92915050565b600073ffffffffffffffffffffffffffffffffffffffff82169050919050565b6000610b7482610b49565b9050919050565b610b8481610b69565b82525050565b6000602082019050610b9f6000830184610b7b565b92915050565b600081905092915050565b6000610bbb826109fa565b610bc58185610ba5565b9350610bd5818560208601610a16565b80840191505092915050565b6000610bed8284610bb0565b915081905092915050565b7f436572746966696361746520646f6573206e6f74206578697374000000000000600082015250565b6000610c2e601a83610a05565b9150610c3982610bf8565b602082019050919050565b60006020820190508181036000830152610c5d81610c21565b9050919050565b7f4e487b7100000000000000000000000000000000000000000000000000000000600052602260045260246000fd5b60006002820490506001821680610cab57607f821691505b602082108103610cbe57610cbd610c64565b5b50919050565b7f4f6e6c79206f776e65722063616e2063616c6c20746869732066756e6374696f60008201527f6e00000000000000000000000000000000000000000000000000000000000000602082015250565b6000610d20602183610a05565b9150610d2b82610cc4565b604082019050919050565b60006020820190508181036000830152610d4f81610d13565b9050919050565b6000819050919050565b610d6981610d56565b82525050565b6000602082019050610d846000830184610d60565b92915050565b60008190508160005260206000209050919050565b60008154610dac81610c93565b610db68186610ba5565b94506001821660008114610dd15760018114610de657610e19565b60ff1983168652811515820286019350610e19565b610def85610d8a565b60005b83811015610e1157815481890152600182019150602081019050610df2565b838801955050505b50505092915050565b6000610e2e8284610d9f565b915081905092915050565b7f436572746966696361746520494420616c726561647920657869737473000000600082015250565b6000610e6f601d83610a05565b9150610e7a82610e39565b602082019050919050565b60006020820190508181036000830152610e9e81610e62565b9050919050565b60006020601f8301049050919050565b600082821b905092915050565b600060088302610ef27fffffffffffffffffffffffffffffffffffffffffffffffffffffffffffffffff82610eb5565b610efc8683610eb5565b95508019841693508086168417925050509392505050565b6000819050919050565b6000610f39610f34610f2f84610d56565b610f14565b610d56565b9050919050565b6000819050919050565b610f5383610f1e565b610f67610f5f82610f40565b848454610ec2565b825550505050565b600090565b610f7c610f6f565b610f87818484610f4a565b505050565b5b81811015610fab57610fa0600082610f74565b600181019050610f8d565b5050565b601f821115610ff057610fc181610d8a565b610fca84610ea5565b81016020851015610fd9578190505b610fed610fe585610ea5565b830182610f8c565b50505b505050565b600082821c905092915050565b600061101360001984600802610ff5565b1980831691505092915050565b600061102c8383611002565b9150826002028217905092915050565b611045826109fa565b67ffffffffffffffff81111561105e5761105d610886565b5b6110688254610c93565b611073828285610faf565b600060209050601f8311600181146110a65760008415611094578287015190505b61109e8582611020565b865550611106565b601f1984166110b486610d8a565b60005b828110156110dc578489015182556001820191506020850194506020810190506110b7565b868310156110f957848901516110f5601f891682611002565b8355505b6001600288020188555050505b505050505050565b600060408201905081810360008301526111288185610a40565b90506111376020830184610d60565b939250505056fea2646970667358221220251d235b27f2261ba9b74f2d294cc16bd47ea81b6bc33d7c967de95cb3043b9664736f6c63430008130033",
  "linkReferences": {},
  "deployedLinkReferences": {}
}