{
  "_format": "hh-sol-artifact-1",
  "contractName": "CertificateRegistry",
  "sourceName": "contracts/CertificateRegistry.sol",
  "abi": [
    {
      "inputs": [],
      "stateMutability": "nonpayable",
      "type": "constructor"
    },
    {
      "anonymous": false,
      "inputs": [
        {
          "indexed": true,
          "internalType": "string",
          "name": "certId",
          "type": "string"
        },
        {
          "indexed": false,
          "internalType": "uint256",
          "name": "timestamp",
          "type": "uint256"
        }
      ],
      "name": "CertificateRevoked",
      "type": "event"
    },
    {
      "anonymous": false,
      "inputs": [
        {
          "indexed": true,
          "internalType": "string",
          "name": "certId",
          "type": "string"
        },
        {
          "indexed": false,
          "internalType": "string",
          "name": "hash",
          "type": "string"
        },
        {
          "indexed": false,
          "internalType": "uint256",
          "name": "timestamp",
          "type": "uint256"
        }
      ],
      "name": "CertificateStored",
      "type": "event"
    },
    {
      "inputs": [
        {
          "internalType": "string",
          "name": "certId",
          "type": "string"
        }
      ],
      "name": "certificateRegistered",
      "outputs": [
        {
          "internalType": "bool",
          "name": "",
          "type": "bool"
        }
      ],
      "stateMutability": "view",
      "type": "function"
    },
    {
      "inputs": [
        {
          "internalType": "string",
          "name": "certId",
          "type": "string"
        }
      ],
      "name": "getCertificateHash",
      "outputs": [
        {
          "internalType": "string",
          "name": "",
          "type": "string"
        }
      ],
      "stateMutability": "view",
      "type": "function"
    },
    {
      "inputs": [],
      "name": "owner",
      "outputs": [
        {
          "internalType": "address",
          "name": "",
          "type": "address"
        }
      ],
      "stateMutability": "view",
      "type": "function"
    },
    {
      "inputs": [
        {
          "internalType": "string",
          "name": "certId",
          "type": "string"
        }
      ],
      "name": "revokeCertificate",
      "outputs": [],
      "stateMutability": "nonpayable",
      "type": "function"
    },
    {
      "inputs": [
        {
          "internalType": "string",
          "name": "certId",
          "type": "string"
        },
        {
          "internalType": "string",
          "name": "sha256Hash",
          "type": "string"
        }
      ],
      "name": "storeCertificate",
      "outputs": [],
      "stateMutability": "nonpayable",
      "type": "function"
    },
    {
      "inputs": [
        {
          "internalType": "string",
          "name": "certId",
          "type": "string"
        },
        {
          "internalType": "string",
          "name": "sha256Hash",
          "type": "string"
        }
      ],
      "name": "verifyCertificate",
      "outputs": [
        {
          "internalType": "bool",
          "name": "",
          "type": "bool"
        }
      ],
      "stateMutability": "view",
      "type": "function"
    }
  ],
  "bytecode": "0x608060405234801561001057600080fd5b5033600260006101000a81548173ffffffffffffffffffffffffffffffffffffffff021916908373ffffffffffffffffffffffffffffffffffffffff160217905550610fc3806100616000396000f3fe608060405234801561001057600080fd5b50600436106100625760003560e01c80630499ba6f14610067578063142e1542146100975780632751f71b146100b3578063678d3644146100e35780638da5cb5b146100ff578063fa66ade01461011d575b600080fd5b610081600480360381019061007c9190610800565b61014d565b60405161008e91906108c8565b60405180910390f35b6100b160048036038101906100ac9190610800565b610268565b005b6100cd60048036038101906100c891906108ea565b6103ea565b6040516100da919061097d565b60405180910390f35b6100fd60048036038101906100f891906108ea565b61049a565b005b61010761064b565b60405161011491906109d9565b60405180910390f35b61013760048036038101906101329190610800565b610671565b604051610144919061097d565b60405180910390f35b606060018260405161015f9190610a30565b908152602001604051809103902060009054906101000a900460ff166101ba576040517f08c379a00000000000000000000000000000000000000000000000000000000081526004016101b190610a93565b60405180910390fd5b6000826040516101ca9190610a30565b908152602001604051809103902080546101e390610ae2565b80601f016020809104026020016040519081016040528092919081815260200182805461020f90610ae2565b801561025c5780601f106102315761010080835404028352916020019161025c565b820191906000526020600020905b81548152906001019060200180831161023f57829003601f168201915b50505050509050919050565b600260009054906101000a900473ffffffffffffffffffffffffffffffffffffffff1673ffffffffffffffffffffffffffffffffffffffff163373ffffffffffffffffffffffffffffffffffffffff16146102f8576040517f08c379a00000000000000000000000000000000000000000000000000000000081526004016102ef90610b85565b60405180910390fd5b6001816040516103089190610a30565b908152602001604051809103902060009054906101000a900460ff16610363576040517f08c379a000000000000000000000000000000000000000000000000000000000815260040161035a90610a93565b60405180910390fd5b60006001826040516103759190610a30565b908152602001604051809103902060006101000a81548160ff021916908315150217905550806040516103a89190610a30565b60405180910390207f57bf3aad622f3cf905e8c86d1e40e1de99f3ea3a1c14decf97a8671c24fbe557426040516103df9190610bbe565b60405180910390a250565b60006001836040516103fc9190610a30565b908152602001604051809103902060009054906101000a900460ff166104255760009050610494565b816040516020016104369190610a30565b6040516020818303038152906040528051906020012060008460405161045c9190610a30565b908152602001604051809103902060405160200161047a9190610c71565b604051602081830303815290604052805190602001201490505b92915050565b600260009054906101000a900473ffffffffffffffffffffffffffffffffffffffff1673ffffffffffffffffffffffffffffffffffffffff163373ffffffffffffffffffffffffffffffffffffffff161461052a576040517f08c379a000000000000000000000000000000000000000000000000000000000815260040161052190610b85565b60405180910390fd5b60018260405161053a9190610a30565b908152602001604051809103902060009054906101000a900460ff1615610596576040517f08c379a000000000000000000000000000000000000000000000000000000000815260040161058d90610cd4565b60405180910390fd5b806000836040516105a79190610a30565b908152602001604051809103902090816105c19190610e8b565b50600180836040516105d39190610a30565b908152602001604051809103902060006101000a81548160ff021916908315150217905550816040516106069190610a30565b60405180910390207fe7ca35231b44b0fd505c2bd6f738db12c1e2c45e89c3e89c88f5c225459d51fb824260405161063f929190610f5d565b60405180910390a25050565b600260009054906101000a900473ffffffffffffffffffffffffffffffffffffffff1681565b60006001826040516106839190610a30565b908152602001604051809103902060009054906101000a900460ff169050919050565b6000604051905090565b600080fd5b600080fd5b600080fd5b600080fd5b6000601f19601f8301169050919050565b7f4e487b7100000000000000000000000000000000000000000000000000000000600052604160045260246000fd5b61070d826106c4565b810181811067ffffffffffffffff8211171561072c5761072b6106d5565b5b80604052505050565b600061073f6106a6565b905061074b8282610704565b919050565b600067ffffffffffffffff82111561076b5761076a6106d5565b5b610774826106c4565b9050602081019050919050565b82818337600083830152505050565b60006107a361079e84610750565b610735565b9050828152602081018484840111156107bf576107be6106bf565b5b6107ca848285610781565b509392505050565b600082601f8301126107e7576107e66106ba565b5b81356107f7848260208601610790565b91505092915050565b600060208284031215610816576108156106b0565b5b600082013567ffffffffffffffff811115610834576108336106b5565b5b610840848285016107d2565b91505092915050565b600081519050919050565b600082825260208201905092915050565b60005b83811015610883578082015181840152602081019050610868565b60008484015250505050565b600061089a82610849565b6108a48185610854565b93506108b4818560208601610865565b6108bd816106c4565b840191505092915050565b600060208201905081810360008301526108e2818461088f565b905092915050565b60008060408385031215610901576109006106b0565b5b600083013567ffffffffffffffff81111561091f5761091e6106b5565b5b61092b858286016107d2565b925050602083013567ffffffffffffffff81111561094c5761094b6106b5565b5b610958858286016107d2565b9150509250929050565b60008115159050919050565b61097781610962565b82525050565b6000602082019050610992600083018461096e565b92915050565b600073ffffffffffffffffffffffffffffffffffffffff82169050919050565b60006109c382610998565b9050919050565b6109d3816109b8565b82525050565b60006020820190506109ee60008301846109ca565b92915050565b600081905092915050565b6000610a0a82610849565b610a1481856109f4565b9350610a24818560208601610865565b80840191505092915050565b6000610a3c82846109ff565b915081905092915050565b7f436572746966696361746520646f6573206e6f74206578697374000000000000600082015250565b6000610a7d601a83610854565b9150610a8882610a47565b602082019050919050565b60006020820190508181036000830152610aac81610a70565b9050919050565b7f4e487b7100000000000000000000000000000000000000000000000000000000600052602260045260246000fd5b60006002820490506001821680610afa57607f821691505b602082108103610b0d57610b0c610ab3565b5b50919050565b7f4f6e6c79206f776e65722063616e2063616c6c20746869732066756e6374696f60008201527f6e00000000000000000000000000000000000000000000000000000000000000602082015250565b6000610b6f602183610854565b9150610b7a82610b13565b604082019050919050565b60006020820190508181036000830152610b9e81610b62565b9050919050565b6000819050919050565b610bb881610ba5565b82525050565b6000602082019050610bd36000830184610baf565b92915050565b60008190508160005260206000209050919050565b60008154610bfb81610ae2565b610c0581866109f4565b94506001821660008114610c205760018114610c3557610c68565b60ff1983168652811515820286019350610c68565b610c3e85610bd9565b60005b83811015610c6057815481890152600182019150602081019050610c41565b838801955050505b50505092915050565b6000610c7d8284610bee565b915081905092915050565b7f436572746966696361746520494420616c726561647920657869737473000000600082015250565b6000610cbe601d83610854565b9150610cc982610c88565b602082019050919050565b60006020820190508181036000830152610ced81610cb1565b9050919050565b60006020601f8301049050919050565b600082821b905092915050565b600060088302610d417fffffffffffffffffffffffffffffffffffffffffffffffffffffffffffffffff82610d04565b610d4b8683610d04565b95508019841693508086168417925050509392505050565b6000819050919050565b6000610d88610d83610d7e84610ba5565b610d63565b610ba5565b9050919050565b6000819050919050565b610da283610d6d565b610db6610dae82610d8f565b848454610d11565b825550505050565b600090565b610dcb610dbe565b610dd6818484610d99565b505050565b5b81811015610dfa57610def600082610dc3565b600181019050610ddc565b5050565b601f821115610e3f57610e1081610bd9565b610e1984610cf4565b81016020851015610e28578190505b610e3c610e3485610cf4565b830182610ddb565b50505b505050565b600082821c905092915050565b6000610e6260001984600802610e44565b1980831691505092915050565b6000610e7b8383610e51565b9150826002028217905092915050565b610e9482610849565b67ffffffffffffffff811115610ead57610eac6106d5565b5b610eb78254610ae2565b610ec2828285610dfe565b600060209050601f831160018114610ef55760008415610ee3578287015190505b610eed8582610e6f565b865550610f55565b601f198416610f0386610bd9565b60005b82811015610f2b57848901518255600182019150602085019450602081019050610f06565b86831015610f485784890151610f44601f891682610e51565b8355505b6001600288020188555050505b505050505050565b60006040820190508181036000830152610f77818561088f565b9050610f866020830184610baf565b939250505056fea264697066735822122003ae00d7d189c0474f1743bb686c161f06c61957d35ccad8a5d55aa69bb8db4a64736f6c63430008130033",
  "linkReferences": {},
  "deployedLinkReferences": {}
}